:020000040800F2
:10000000702A0124F903000829C10008C1AD0008C5
:1000100091BD0008491300084918010800000000BC
:10002000000000000000000000000000A1CC00085B
:10003000411800080000000041C1000871CF00080D
:100040001304000813040008130400081304000834
:100050001304000813040008130400081304000824
:10006000130400081304000813040008B91300085F
:10007000C9130008D913000813040008130400086A
:10008000130400081304000813040008591800089A
:10009000A118000869180008B11800081304000826
:1000A00013040008130400081304000813040008D4
:1000B00013040008130400081304000813040008C4
:1000C00013040008130400081304000813040008B4
:1000D00013040008A1EE0008B1EE0008C1EE00080C
:1000E00013040008130400080000000013040008B3
:1000F0001304000813040008130400081304000884
:100100001304000813040008130400081304000873
:100110001304000813040008130400081304000863
:100120001304000813040008130400081304000853
:100130001304000813040008130400081304000843
:1001400000000000000000000000000000000000AF
:100150001304000813040008130400081304000823
:100160001304000813040008130400081304000813
:100170001304000831C10008130400080000000047
:100180001304000813040008C9D20008130400086F
:1001900013040008130400081304000813040008E3
:1001A00013040008130400081304000800000000F2
:1001B00013040008130400081304000813040008C3
:1001C00013040008130400080000000000000000F1
:1001D0000000000000000000130400080000000000
:1001E000000000000000000000000000000000000F
:1001F00000000000000000001304000813040008C1
:100200001304000813040008000000001304000891
:100210001304000813040008130400081304000862
:100220001304000800000000130400080000000090
:100230001304000813040008000000001304000861
:100240001304000813040008130400081304000832
:100250001304000813040008130400081304000822
:100260001304000813040008130400081304000812
:100270001304000813040008130400080000000021
:1002800013040008130400081304000813040008F2
:100290000000000013040008130400080000000020
:1002A00000000000130400081304000813040008F1
:1002B00091EE00081304000813040008C118000898
:1002C000D118000831D100081304000800F002F82A
:1002D00000F082F814A696E8000CB244B344DA4564
:1002E00001D100F079F8BAE80F000FA696E83000C7
:1002F000A5EB040504EB0607AAEB0704A7F1010729
:100300004FEA15154FEA3414A4F10104AC4201D3AD
:1003100000F062F813F0010F18BFFB1A43F001035D
:1003200000F001F8DBE71847EC5401000C55010020
:100330000A444FF0000C10F8013B13F0070408BF0B
:1003400010F8014B1D1108BF10F8015B641E05D0A9
:1003500010F8016B641E01F8016BF9D113F0080F5E
:100360001EBF10F8014BAD1C0C1B09D16D1E58BFF0
:1003700001F801CBFAD505E014F8016B01F8016B27
:100380006D1EF9D59142D6D370470000704700002A
:100390000023002400250026103A28BF78C1FBD88E
:1003A000520728BF30C148BF0B607047662914F060
:1003B000F987642900F0B880002070471FB514F059
:1003C00069FF00F035FC04000020002114F006FF56
:1003D000E0601FBD10B510BD00F02EFD1146FFF707
:1003E000EDFF11F065FE00F04CFD03B4FFF7F2FFE6
:1003F00003BC00F08FFD0000094880470948004712
:10040000FEE7FEE7FEE7FEE7FEE7FEE7FEE7FEE7C4
:10041000FEE7FEE704480549054A064B7047000021
:1004200081D00008CD02000870200124702A012428
:10043000702201247022012453EA020C00F069802A
:100440002DE9F04B4FF00006002B1FBFB3FA83F5E8
:1004500003FA05F424FA05F65E4012BF1643B2FA19
:1004600082F502FA05F4C5F120051EBF22FA05FC4B
:1004700044EA0C04203556EA044C4FEA144418BFF1
:10048000641C4FF000084FF00009904271EB030C20
:1004900039D3002919BFB1FA81F701FA07F6B0FA8A
:1004A00080F700FA07F6C7F120071EBF20FA07FC05
:1004B00046EA0C062037B6FBF4FCA7EB0507103F15
:1004C00007F01F0BCBF120062CFA06F60CFA0BFBFB
:1004D00044BFB3460026202FA4BF5E464FF0000B5A
:1004E0005BEA060C08BF4FF0010B19EB0B0948EB58
:1004F0000608ABFB027C06FB02CC0BFB03CCC01B4B
:1005000071EB0C01C1E70B46024641464846BDE887
:10051000F08B13B5084318BF4FF0FF300146AFF31F
:100520000080BDE81C4070472DE9F04106460024DC
:1005300010687529314616A510D0AFF30080002849
:1005400002DA404213A507E031688A0701D512A5F7
:1005500002E0490704D511A5012401E0AFF30080B2
:1005600000210A2206F1240709E0B0FBF2FCB0FBEF
:10057000F2F302FB1C00303078541846491C002866
:10058000F3D123462A463046BDE8F04100F0B6B824
:10059000000000002D0000002B00000020000000E3
:1005A00040EA010310B59B070FD1042A0DD310C8F0
:1005B00008C9121F9C42F8D020BA19BA884201D942
:1005C000012010BD4FF0FF3010BD1AB1D30703D08A
:1005D000521C07E0002010BD10F8013B11F8014B40
:1005E0001B1B07D110F8013B11F8014B1B1B01D15C
:1005F000921EF1D1184610BD032A40F2308010F04F
:10060000030C00F0158011F8013BBCF1020F6244AD
:1006100098BF11F801CB00F8013B38BF11F8013B3E
:10062000A2F1040298BF00F801CB38BF00F8013BEB
:1006300011F0030300F0C982083AC0F0088051F8B5
:10064000043B083A51F804CBA0E80810F5E7121D66
:100650005CBF51F8043B40F8043BAFF30080D20785
:1006600024BF11F8013B11F801CB48BF11F8012B51
:1006700024BF00F8013B00F801CB48BF00F8012B74
:10068000704702F0FF0343EA032242EA024200F00D
:1006900002B84FF0000200B5134694469646203942
:1006A00022BFA0E80C50A0E80C50B1F12001BFF42B
:1006B000F7AF090728BFA0E80C5048BF0CC05DF891
:1006C00004EB890028BF40F8042B08BF704748BFDF
:1006D00020F8022B11F0804F18BF00F8012B704753
:1006E00070477047704710B500F0A6FA006810BD5B
:1006F00010B5044600F0A0FA046010BD2DE9F047E3
:100700000D4699469246044600F124080168880681
:1007100004D5E06921F01001216000E00120A84229
:1007200001DD471B00E00027A1697A1902EB0900EF
:10073000081AA0612078C00602D42046AFF30080DA
:10074000002608E0D4E901211AF806009047206A43
:10075000401C761C20624E45F4DB2078C0060AD58A
:100760002046AFF3008006E0D4E901213020904715
:10077000206A401C2062381EA7F10107F4DC07E064
:10078000D4E9012118F805009047206A401C206236
:10079000281EA5F10105F3DC2046AFF30080207888
:1007A000000602D50220BDE8F0870120FBE72DE915
:1007B000FF4F0C461E464FF0FF378BB0D2E90001C9
:1007C000DDF860800A908A46C1F30A5505B93D46B6
:1007D000002108464FF00000BAF1000F00F440007D
:1007E00005DA00EB80004FF4400101EA50004FEAC7
:1007F0009059B9F1010F00DDB9460A9850EA4A0054
:100800000ED044F61050A5F2FF3545432F14B8F131
:10081000000F1ED07542291E1EDDC9F100021CE02A
:10082000B8F1010F4FF0000001D0302103E0F24396
:1008300005E02154401CB042FBDB30460022002181
:1008400021540B99C1F80880C1E900200FB0BDE820
:10085000F08FBD1B6D1CDEE74A4600DA694206A830
:1008600000F074FA06AB93E8070003AB83E80700D7
:1008700050460A9913F02AFC8DE80700A0F50050B5
:100880001F3800900398002D0ADD42F21F014A46EE
:100890000844002303A90390684613F093FE09E07F
:1008A000A0F500504A461F38002303A9039068466C
:1008B00013F09DFE8DE807000004000C03D04FF0FC
:1008C000FF30410800E01046B8F1000F03D00022CD
:1008D000009215461EE0751E05D400F0B1F93032C5
:1008E00062556D1EF9D5B3460122084302D000229D
:1008F0007F1C04E02078302801D100227F1E002ACE
:10090000099784D01DE0112D07DA00F099F93032F3
:1009100062556D1C50EA0102F5D1084302D00098DF
:10092000C8B10EE00021681E05E0235C625C6354E0
:100930002254401E491C8142F7DBAB46A81B401ED7
:100940000990002004F80B000B98099AC0F8088061
:10095000C0E9002B7AE711264FF0000857E72DE990
:10096000F04F88460446D21D22F0070191B0D1E92C
:100970000001CDE90A0113F071FF02460B98C00F88
:1009800001D02D2007E02068810701D52B2002E04F
:10099000202101EAC000032A099001D0072A05DBC3
:1009A00003464146204600F091F90BE1207880068D
:1009B00001D5E06900E00620B8F1650F814606D058
:1009C000B8F1660F18D0B8F1670F70D131E0002090
:1009D000B9F1110F009001DB112301E009F10103CE
:1009E0000AAA01A90CA8FFF7E2FEDDE90C700026B7
:1009F00009F10105834647E001204B4600904FF086
:100A000000470AAA01A90CA8FFF7D1FEDDE90DB045
:100A10000C995D46002610B909F101000D18B9EBDB
:100A2000050003D4C0F1FF3609F10105A5EB09006B
:100A30002BE0B9F1010F01DA4FF001090020B9F103
:100A4000110F0090484601DD112300E003460AAA79
:100A500001A90CA8FFF7ABFEDDE90C704D4600269E
:100A60008346207800070AD4AB4500DA5D4601A82A
:100A7000012D04DD411911F8011C302907D04F4523
:100A800002DA17F1040F04DA012082460FE06D1E2E
:100A9000EEE7002F02DCED1B3E4403E0781CA84289
:100AA00000DD7D1CB81B00F1010A4FF000472078E3
:100AB000000703D4AA4501DB4FF0FF3A0021B7F14C
:100AC000004F0DF143088DF8431024D002202B2352
:100AD000002F01DA7F422D230A21021EA0F101001E
:100AE00000DC5FB197FBF1FC97FBF1F201FB1C7C92
:100AF00017460CF1300C08F801CDEEE7A8F1010023
:100B000003702188090501D5452100E06521A0F188
:100B1000010800F8011C09980FA9A1EB0807FF1DA7
:100B200000B10120411901EBEA70A1693844081AAB
:100B3000401EA0612078C00602D42046AFF300809A
:100B4000099828B1D4E901219047206A401C20620D
:100B50002078C00622D52046AFF300801EE0002E8C
:100B600004DBB34502DD01A8805D00E03020D4E95C
:100B700001219047206A401C2062761CAAF10100E6
:100B80005FEA000A0AD100F053F8C0680168405CCF
:100B9000D4E901219047206A401C2062281EA5F15B
:100BA0000105DCDC07E0D4E9012118F8010B9047CE
:100BB000206A401C2062381EA7F10107F3DC2046A2
:100BC000AFF30080032011B041E610B5203AC0F029
:100BD0000B80B1E81850A0E81850B1E81850A0E810
:100BE0001850203ABFF4F5AF5FEA027C24BFB1E8A9
:100BF0001850A0E8185044BF18C918C0BDE81040EC
:100C00005FEA827C24BF51F8043B40F8043B08BFF4
:100C10007047D20728BF31F8023B48BF11F8012BBB
:100C200028BF20F8023B48BF00F8012B70470000A6
:100C300000487047580100240048704738010024DC
:100C400030B5B0F10A0271F100034FEA900E4EEA9E
:100C5000817EB0EB0E0061EB91014FEA101E4EEA6F
:100C6000017E10EB0E0041EB11114FEA102E4EEAFF
:100C7000016E10EB0E0041EB11214FEA104E4EEACF
:100C8000014E10EB0E0041EB1141401841F1000103
:100C90004FEAD00040EA41704FEAD1014FEA8104A7
:100CA00044EA907410EB800544EB01046D1944EBA9
:100CB0000404521BA3414FF0000348BF0A3200D581
:100CC00030BD401C41F1000130BD00002DE9F04174
:100CD0001F46044603260168072A01F4006004DB6E
:100CE00008B116A505E016A503E008B115A500E0BA
:100CF00015A521F010002060A069C01EA0610FB1F1
:100D0000401EA0612046AFF300804FB1D4E901211D
:100D100038469047206A401C2062C01C206206E0D2
:100D2000206AFAE7D4E9012115F8010B9047761EF5
:100D3000F8D22046AFF30080BDE8F0814E414E006E
:100D40006E616E00494E4600696E66002DE9F047FF
:100D5000814616468AB0354878440DC88DE80D00A6
:100D600032487844801C03AC0DC884E80D0041F67D
:100D70009B300844372190FBF1F290FBF1F5A5F18F
:100D8000800501FB12041B3C02D56442012000E0F7
:100D90000020DFF898A080460027FA44AAF1BE0A96
:100DA0000EE0E0070AD03246684607EB4701012310
:100DB0000AEB810113F01BFC8DE8070064107F1C17
:100DC000002CEED1194F7F44AE3F19E0E80715D053
:100DD00007EB04100DF1180A90E80E008AE80E00E7
:100DE000C068F04201D1981908903246012306A943
:100DF00003A813F0FCFB03AB83E807006D10641C31
:100E0000002DE3D14FF0010332466946B8F1000FDF
:100E100003A802D013F0D6FB01E013F0E8FBC9E908
:100E20000001C9F808200AB0BDE8F087E8460100D3
:100E300000487047380100247546FFF7F9FFAE46B9
:100E400005006946534620F00700854618B020B5D6
:100E5000FFF7E0FABDE820404FF000064FF0000732
:100E60004FF000084FF0000BAC46ACE8C009ACE80E
:100E7000C009ACE8C009ACE8C00921F007018D4603
:100E8000704710B50446AFF300802046BDE810401F
:100E9000FFF7ABBA0000000030B44FF0013C50F84F
:100EA000042BCCFA52F451F8043BD51A20D1FCB9EA
:100EB00050F8042BCCFA52F451F8043BD51A17D150
:100EC000B4B950F8042BCCFA52F451F8043BD51ABB
:100ED0000ED16CB950F8042BCCFA52F451F8043B03
:100EE000D51A05D1002CDAD030BC4FF00000704785
:100EF00029BAB1FA81F111F01801D1F12000844032
:100F0000F2D1CA40CB4012F0FF0213F0FF0330BC15
:100F1000D01A704701491820ABBEFEE72600020038
:100F2000704700000000000010B50446006842F25F
:100F3000001140F48070C4F20201884218D142F2DC
:100F40000830C4F20200006810F4403F18D007F0E7
:100F5000B7F96168B1F5803F05D0B1F5403F2DD0BC
:100F6000B1F5003F2BD1090CB0FBF1F027E000BF39
:100F700046F20830C5F60200006810F4403FE6D1A2
:100F80004FF40020002106F027F96168A1F58022C6
:100F90008B0343EA92420A2A11D8DFE802F00707DE
:100FA000070707073D3F4143450000BF6FF00102BF
:100FB00002EA5141B0FBF1F001E000BF80084BF6BE
:100FC0002141C0F2BE01884206D82068816821F420
:100FD0004071816010BD00BF47F64101C0F27D1134
:100FE000884207D820680122816862F30921816064
:100FF00010BD00BF21684FF28102C0F2FA22904278
:10100000886805D8022262F30920886010BD00BFFD
:1010100040F44070886010BD0009D0E74009CEE779
:101020008009CCE7C009CAE7000AC8E70000000051
:101030000146806B026E12F0500F026E06D0D2068F
:1010400010D4806DC26C0846104700BF42F4007196
:10105000016601680A681207CA6805D4910709D0B9
:1010600000F0CEBF00F0D4BF12F4406FF8D1C968D1
:101070008904F5D4016E21F480710166016EC90402
:10108000EED4016E41F00101016600F0B9BF00002D
:10109000806B016E41F040010166416E41F0040138
:1010A000416600F0B5BF0000806B00F0ADBF0000EE
:1010B000B0B5016804468A688868C0074FF0000030
:1010C00031D012F0020218BFB0BD886800F00D00E8
:1010D00001281FD14FF6C0728868C7F6FF72104012
:1010E000023088600320086004F01AF821688968DB
:1010F000C90701D10020B0BD054602E08068C007E5
:10110000F8D004F00DF8401B03282068F6D381685E
:10111000C907F3D0206E40F010002066606E40F0EA
:10112000010060660120B0BDF0B581B004460068E2
:101130008168C9074CD14FF6C0778168C7F6FF7741
:1011400007F17F0211420BD0206E40F010002066A4
:10115000606E40F001006066012001B0F0BD00BF8C
:101160008168394041F00101816003F0D9FF42F20A
:10117000000346F20836C4F20203216803F58072C8
:1011800003F54275C5F60206914208BF2E46994204
:1011900008BF2E4699420546306816D0914214D1B8
:1011A00010F01F0014D110E08868C00704D18868CF
:1011B000384040F00100886003F0B2FF401B216816
:1011C000032802D30868C007BED00868C007EBD068
:1011D000002001B0F0BD000002230376032380F855
:1011E000303000F13C0301210170002149F69A12D0
:1011F00044F2AE7CC3F69962C3F6616C83E80610D4
:10120000042380F84830052380F8603000F16C0337
:101210004261C0E90111C0E90312C0E9071141624E
:10122000C0E90A2CC0E90D11C0E91311C0E915117C
:10123000C165C0E9191183E80610062280F87820FC
:10124000C0E91F11C0E92111C0F88C1070470000DF
:1012500040F2000C002344F2AE71C4F2A01C4FF027
:101260007C52C4F2C003C0E904C2C3F66161C0E9A4
:101270000A31C0E910310021C0E91611C0E91CC2D1
:10128000C0E92211704700004DF2D4600421C2F27F
:10129000004008F0D1BB000041F638003221C4F212
:1012A000000001604CF68410C2F200400121017080
:1012B00070470000000000004CF684103222C2F299
:1012C000004041F63803C4F200030178002981F0A0
:1012D000010118BF00221A60017070470000000071
:1012E00010B503F01DFF04460020C5F602004FF4C0
:1012F000004103F005FF40F29421C2F200410A7858
:10130000022A0BD0012A0FD08AB980B901200870B7
:1013100004F164004860002010BD00BF01284FF0B8
:10132000000008BF087010BD4A68944202D2002035
:1013300010BD00BF10B10020087010BD0220087061
:10134000012010BD00000000FEE7000000000000CA
:1013500000207047000000000020704700000000DF
:1013600010B54CF6F0144CF2F401C2F20044C2F293
:101370000041002220460DF07BFF4BF6F401204691
:10138000C2F200410DF064FF002010BD000000001B
:1013900010B54CF6F0140146C2F2004420460DF0A0
:1013A00057FF20460DF030FF002010BD0000000068
:1013B00000207047000000004CF62C60C2F2004094
:1013C00001F0DABC000000004CF63C50C2F20040D4
:1013D00001F0D2BC000000004CF6B450C2F2004054
:1013E00001F0CABC0000000040F20F42D0F800C07B
:1013F000C4F20202944511DC6F22C4F20202944549
:1014000022DC3F22C4F20202944539DC1022C4F2ED
:10141000020294455AD0282254E000BF40F26F42A5
:10142000C4F2020294451BDC40F23F42C4F20202C5
:1014300094452DDC40F21042C4F20202944545D09E
:1014400040F228423EE000BF9F22C4F202029445CF
:1014500028DC7022C4F20202944537D0882231E0A1
:1014600040F29F42C4F20202944523DC40F27042F3
:10147000C4F20202944529D040F2884222E000BF23
:101480004022C4F20202944520D058221AE000BF44
:1014900040F24042C4F20202944517D040F2584252
:1014A00010E000BFA022C4F2020294450ED0B82280
:1014B00008E000BF40F2B842C4F20202944505D0F1
:1014C00040F2A042C4F20202944517D10CF0F80297
:1014D0004AF6AB23103ACAF6AA23A2FB03310AA3A9
:1014E0005F2AC1F302115B5C40F2FF312CEA01017B
:1014F000C36588BF04318165084670472CF0FF0141
:1015000081650846704700BF0006101600061016D9
:1015100070B540F26F44D0F800C0C4F20204D0F8B5
:1015200058E0A4451ADC9F25C4F20205AC4533DC23
:101530005725C4F20205AC455ADC1025C4F2020559
:10154000AC4500F098802825C4F20205AC4500F0B7
:1015500092804025C4F202058AE000BF45F22F4583
:10156000C5F60205AC452DDC40F2B745C4F20205D4
:10157000AC454BDC40F27045C4F20205AC457AD074
:1015800040F28845C4F20205AC4574D040F2A04553
:10159000C4F202056CE000BF40F22745C4F2020528
:1015A000AC4543DCA025C4F20205AC4563D0B825A8
:1015B000C4F20205AC455ED040F21045C4F202050B
:1015C00056E000BF45F26B45C5F60205AC453FDC71
:1015D00045F23045C5F60205AC454CD045F24445D0
:1015E000C5F60205AC4546D045F258453EE000BF81
:1015F0005825C4F20205AC453DD07025C4F2020561
:10160000AC4538D08825C4F2020531E040F2B84537
:10161000C4F20205AC452ED045F20845C5F60205D8
:10162000AC4528D045F21C4520E000BF40F22845DB
:10163000C4F20205AC451ED040F24045C4F202059A
:10164000AC4518D040F25845C4F2020510E000BF86
:1016500045F26C45C5F60205AC450CD045F2944503
:10166000C5F60205AC4506D045F28045C5F6020533
:10167000AC4540F0D080456EC66E002E866E6E6022
:101680001CBFD0E91C566E60A44515DC9F24C4F233
:101690000204A4452CDC5724C4F20204A44551DC06
:1016A0001024C4F20204A4457AD02824C4F202040F
:1016B000A44575D040246FE045F22F44C5F60204DE
:1016C000A44529DC40F2B744C4F20204A44545DC39
:1016D00040F27044C4F20204A44561D040F2884450
:1016E000C4F20204A4455BD040F2A04454E000BF21
:1016F00040F22744C4F20204A4453FDCA024C4F213
:101700000204A4454CD0B824C4F20204A44547D036
:1017100040F2104440E000BF45F26B44C5F60204BD
:10172000A44555DC45F23044C5F60204A44561D019
:1017300045F24444C5F60204A4455BD045F2584442
:1017400054E000BF5824C4F20204A44528D07024F9
:10175000C4F20204A44523D088241DE040F2B8441A
:10176000C4F20204A4451BD045F20844C5F60204A5
:10177000A4453FD045F21C4438E000BF40F2284465
:10178000C4F20204A4450BD040F24044C4F2020467
:10179000A44505D040F25844C4F20204A4453AD10D
:1017A0008468C06D00F01F003F2505FA00F0CEF8F8
:1017B0000800DCF80000402C20F48020CCF8000069
:1017C000CCF8043023D1CCF80820CCF80C1070BD34
:1017D00045F26C44C5F60204A4450BD045F28044A2
:1017E000C5F60204A44505D045F29444C5F60204AA
:1017F000A44510D1C46D012504F01F04806805FACA
:1018000004F4CEF804404028CCF80430DBD0CCF807
:101810000810CCF80C2070BD4EF6FC50CEF2000043
:10182000016841F08071016041F200000021CEF2B8
:1018300000004160016841F0010101607047000053
:101840007047000000000000EFF3108072B600BF88
:10185000FEE70000000000004CF6A460C2F2004069
:1018600002F0D2BD000000004CF6A460C2F20040BD
:1018700002F0CABD0000000080B540F29C23C2F215
:10188000004343F8382F02464CF6A460D960C2F2F8
:101890000040194602F0D8FB002818BF012080BD87
:1018A0004CF64470C2F2004002F0AEBD00000000F1
:1018B0004CF64470C2F2004002F0A6BD00000000E9
:1018C0004CF6E470C2F2004002F09EBD0000000041
:1018D0004CF6E470C2F2004002F096BD0000000039
:1018E000FFF79AFF40F258344DF2B870C2F200444C
:1018F000C2F20040E11C052209F08EF94DF60820E5
:1019000004F10801C2F20040052209F085F94DF604
:101910004C0004F10D01C2F20040052209F07CF9EF
:101920004FF47A7010F0F0FB642010F0EDFBFBE751
:1019300070B582B000230193044690F85C00012842
:1019400002D1022002B070BD012084F85C00204664
:1019500015460E46FFF7ACFB216E18B141F01001A1
:101960004CE000BF41F202124FF6C0739143C3F640
:10197000FE7302312166216806F4803605F0804549
:101980008A682E4413404FF2FF72C2F2C3523344AE
:1019900003F100438B608B68B3F1FF3F2ADC019BAE
:1019A00001330193019B93421DD88B68B3F1FF3F34
:1019B00020DC019B01330193019B934213D88B6878
:1019C000B3F1FF3F16DC019B01330193019B93426E
:1019D00009D88B68B3F1FF3F0CDC019B0133019305
:1019E000019B9342D7D9206E40F0100020F00201F5
:1019F000012003E0216E012262F301012166002132
:101A000084F85C1002B070BD90F85C20012A01D10E
:101A100002207047B0B582B042F208320023019331
:101A2000C4F202020093A2F542740368A34227D1D4
:101A30004FF6006E4FF60055CFF6FF7ECFF6FF75DE
:101A400052F80E40535923435B0719D4D1F800C014
:101A50001368BCF1000F23F440441FD04B682343AC
:101A60001360535952F80E502B43DB0722D11368F1
:101A700040F61F75AB438968194341EA0C0118E031
:101A8000016E41F0200101660121002280F85C20F6
:101A900002B0BDE8B0400846704700BF146051591D
:101AA00052F80E301943C90704D1116840F61F736C
:101AB000994311600021E8E72DE9F04381B000224D
:101AC000009290F85C20012A04D10221084601B05E
:101AD000BDE8F0830368012280F85C209A68520711
:101AE00000F12C8246F2083C4FF6FF7EC5F6020C50
:101AF000C0F20F0EACF542780C68434516D0B4F135
:101B0000FF3F13DD94FAA4F514EA0E0FB5FA85F53C
:101B10004FF0010608BFA50EA40E05F01F0506FA3A
:101B200005F5DE693543DD6101E000BFA40E4D68B7
:101B30001F2204F01F04C5F3012605F01F05AA406B
:101B400003EB8606AC40376B27EA0202224332637E
:101B50009A689C6802F0040204F00804121940F02C
:101B600004810A6807268D684345C2F34064C2F3C6
:101B7000045203EB840406FA02F6676905FA02F2DE
:101B800027EA060642EA0602626117D041F2000225
:101B9000C5F60042126802F07042B2F1805F73D164
:101BA0004A69DC680E2505EA540402FA04F90D6955
:101BB0004F46042D00F08280A8E000BF4FF604528B
:101BC000CFF6FF72D1E90454042D5CF8026065D1B0
:101BD0004FF65852CFF6FF725CF802201A6E0E686C
:101BE000C2F3846216EA0E04C6F3846596FAA6F67A
:101BF000B6FA86F6374608BF2F46BA420CD11A6E9F
:101C000022F000421A660A6802EA0E04C2F38465F2
:101C100092FAA2F2B2FA82F65A6E37465A6E002C47
:101C200008BF2F46C2F38462BA420CD15A6E22F02A
:101C300000425A660A6802EA0E04C2F3846592FA08
:101C4000A2F2B2FA82F69A6E37469A6E002C08BF5C
:101C50002F46C2F38462BA420CD19A6E22F000423F
:101C60009A660A6802EA0E04C2F3846592FAA2F246
:101C7000B2FA82F6DA6E002CDA6E08BF2E46C2F394
:101C80008462B2423AD070E0DA684C69DD68D2060C
:101C90004FEA55050AD405F00E0209E006224FF07E
:101CA000004902EA960204FA02F72FE005F0080262
:101CB00004FA02F90D694F46042D27D11A6E0C68FB
:101CC00002F0F842A406A24240F09A801A6E22F076
:101CD00000421A665A6E02F0F842A24200F0968064
:101CE0009A6E02F0F842A24203D19A6E22F00042AC
:101CF0009A66DA6E02F0F842A24236D1DA6E22F02B
:101D00000042DA669A68D20733D0D0E003F1600669
:101D10000A68434502F0F84256F8254042EA0902B3
:101D200018BF04F00047434542EA070246F8252061
:101D30000C6977D091F821200D7E56F8247027F099
:101D40000047012A08BF07F100476A1EB2FA82F273
:101D500046F8247052090C69D2021D6904F01F0470
:101D600025F4F045A2402A431A619A68D20740F050
:101D70009E8043450C68CD6826D005F01806D3F840
:101D8000C02004EA0E072EFA06F6BA432640324374
:101D9000C3F8C0200022C4F2FF7295422CD114EA8D
:101DA0000E0F5BD094FAA4F2B2FA82F2013202F082
:101DB0001E07092F02F01F0759D8012207EB47061B
:101DC000BA4042EA06575EE04FF6A85905F01807F8
:101DD000CFF6FF7904EA0E022EFA07F75CF80960E5
:101DE00026EA020207EA040632434CF809200022E0
:101DF000C4F2FF729542D2D0B4F1FF3F57DC59E0F4
:101E00005A6E02F0F842A2427FF46AAF5A6E22F094
:101E100000425A669A6E02F0F842A2423FF465AF61
:101E200067E700BFACF52A72CD6952F8246026F04E
:101E30008076354342F824500C6991F8205052F8CE
:101E40002460012D26F0007608BF06F1007642F8E6
:101E500024609A68D2078CD029E000BF012202EBEF
:101E6000946202F01E070A2F02F01F07A5D3012279
:101E700007EB4706BA400027CFF6206707EB065767
:101E80003A4342F00077C7F340620725C7F304578F
:101E90008E6803EB8202BD40546906FA07F724EA14
:101EA00005052F4357610C68B4F1FF3F02DD0021A7
:101EB00049E000BF42F2000142F20016C4F2020102
:101EC000C4F2020601F5807201F542779342624640
:101ED00008BF3A468B4208BF3A4643F48077B74280
:101EE000166823D18A68D1F808111143C90725D192
:101EF000002106F0E075CCF252718C4208BF16F456
:101F0000000127D00021CCF221318C4260D1002188
:101F1000B1EB156F5CD1434515D1DCF8001021F011
:101F2000E071294341F0807165E000BF4FF6005138
:101F3000CFF6FF715CF80110C907D9D0016E41F0EE
:101F4000200101660121002280F85C20084601B0D2
:101F5000BDE8F0834345AAD1DCF8001042F6635295
:101F600021F0E071C0F23E52294341F40001CCF867
:101F7000001040F20801C2F2004109688909A1FB82
:101F800002129109022202EB4101009100990029FD
:101F90008DD0009901390091009900293FF487AF55
:101FA000009901390091009900293FF480AF009910
:101FB00001390091009900293FF479AF0099013966
:101FC0000091009900294FF00001E2D1BBE700BF6A
:101FD00043454FF00001B6D10022CCF68432944242
:101FE00008BF16F48002AED1DCF8001021F0E071D9
:101FF000294341F48001CCF800100021A3E7000040
:102000007047000000000000704700000000000062
:102010007047000000000000F0B581B004460028C1
:102020004FF0000000902DD0206E30B9204600F017
:102030007BF90020606684F85C0020688168890074
:102040004FF6C071C5F6FF7102D582680A40826002
:102050008268D20031D4826801F18051114042F689
:10206000635241F08051816040F20801C0F23E525B
:10207000C2F2004109688909A1FB0212012101EBAA
:10208000921105E00125284601B0F0BD0099013903
:102090000091009989B1009901390091009961B1CD
:1020A000009901390091009900291FBF0099013959
:1020B0000091009918BF0029E8D18168C90009D4AE
:1020C000216E012541F010012166616E41F0010190
:1020D000616600E000258168226E02F0100201F0C6
:1020E00004018918216E59D121F4817146F2100C36
:1020F000023121668168C5F6020CC90724D142F27B
:10210000001240F48071C4F20202914242F20001D6
:10211000C4F2020140F0F0808A68D1F808311A4315
:10212000D20711D101F5807201F5427390421A462F
:1021300018BF0CF53E72884208BF1A4661681368E2
:1021400023F47C1319431160617EE36BACF110063C
:10215000B04243EA413329D0A168194394F82030B2
:10216000012B41EA034306D1616A0022CFF6FE72D9
:1021700002EB41410B43A16A21B101F47871E26A9B
:1021800011430B43B0421FD04CF20302C168CFF69B
:10219000F07211401943C16028E000BF41F0100007
:1021A00001252066284601B0F0BD00BFD4E9021E1B
:1021B000082900F0A7800C2900F0A6801C2940F017
:1021C000A5801021A5E000BF44F207025CF8041CC2
:1021D000CFF6F072114019434CF8041CDCF80010E3
:1021E000626B21F040611143CCF800108168826875
:1021F00001F0040102F00802891869D1217EB04281
:102200004FEA813126D0226BC36844F20307BB43F7
:102210001A431143C16094F84410012948D14FF684
:102220001E020169CFF600420126D4E9123711409F
:10223000CFF6FF7606EB03433943276D1943636DF1
:102240003943226C19430161016921F07041114346
:1022500001613AE05CF8042C94F8383044F2030E43
:1022600094F8447022EA0E0242EA4302012F41EA46
:1022700002014CF8041C1BD14FF61E01DCF80000D3
:10228000CFF600410840D4E912120843216D1043F3
:10229000626D0843216C104340F00100CCF800004F
:1022A000DCF8000020F070400843CCF800000FE09C
:1022B0000169B04221F0010101610169226C21F044
:1022C000704141EA0201016102D02046FEF72CFE76
:1022D00020682169026B012922F00F0102D1E26915
:1022E000013A114301630121206E61F30100206670
:1022F000284601B0F0BD00BF5CF8082CD2073FF4BF
:1023000011AF21E7002104E0082102E0182918BFDD
:10231000002141EA0E01194394F82030012B41EAD3
:1023200003433FF421AF26E72DE9F043B5B004465F
:1023300002A82830902100253095CDE93355CDE90C
:102340003155FEF7A6F942F200012068C4F20201FD
:10235000884203D035B0BDE8F08300BF4FF40020C1
:1023600002900220049004210890CDE90610C020BC
:102370000395CDE9090502A84FF01008CDF81480A7
:102380000B9505F0E9F808B1FFF75EFA44F2E0407A
:102390000025C5F60200C5F6020530AE4FF0030970
:1023A00050F8081C002741F0200140F8081C50F8A4
:1023B000081C01F0200101910199016841F001011F
:1023C0000160016801F0010101910199016841F08A
:1023D000040101600068314600F00400019001989A
:1023E000202030902846CDF8C490329702F0B4FDFA
:1023F00005F500603146CDE93089329702F0ACFD39
:102400004CF63C552820C2F20045C4F20200286078
:102410000920C5E901074FF4806028614FF400608E
:1024200068614FF40050A8614FF48070EF60C5E917
:10243000070728466F6201F0ABF808B1FFF704FA0E
:10244000A565AC6335B0BDE8F08300000000000076
:102450002DE9F04742F2001546F20C0AC4F20205DB
:10246000044605F50277C5F6020A03683846A5F565
:102470008076AB4218BF0AF53F70B34208BF3846BA
:1024800000689B685B0704D4894694F85C100129B6
:1024900002D10220BDE8F08700F01F060120092EBE
:1024A00084F85C0009D8B04040F22121084204D0F1
:1024B00020469046FEF738FE30B1002084F85C00DC
:1024C0000120BDE8F08700BF216840F60172206E50
:1024D00020EA020000F5807020660EB1A94203D008
:1024E000206E20F480102066206E41F23103C0047B
:1024F0004FF0000044BF606E20F0060041F2A907D3
:10250000C0F600036066C0F60007A06D0022C0E9B7
:102510000F3741F29103C0F60003C3641C230B6024
:1025200084F85C20AAF10C024B68914243F010023F
:102530004A6007D0226BCB6823F003031A43CA60BA
:1025400010E000BF94F83820DAF8003023F00303DD
:1025500043EA4202CAF80020DAF8002042F0010201
:10256000CAF8002040314A46434601F03DFB21684D
:102570004FF6C073C7F6FF738A681A4004328A6048
:10258000BDE8F087000000002DE9F041044602F0AC
:10259000C7FD1CB3054694F83500022822D140F24D
:1025A0000F462768C4F2020640F26F48B7426FF048
:1025B0000E00C4F202081DDC6F21C4F202018F423A
:1025C0002ADC3F21C4F202018F4241DC1021C4F217
:1025D00002018F4263D028215CE000BF0120BDE8EA
:1025E000F08100BF802060650120002184F8341054
:1025F000BDE8F08147451BDC40F23F41C4F20201D7
:102600008F422DDC40F21041C4F202018F4246D0CD
:1026100040F228413EE000BF9F21C4F202018F42F8
:1026200028DC7021C4F202018F4238D0882131E0C9
:1026300040F29F41C4F202018F4223DC40F270411C
:10264000C4F202018F422AD040F2884122E000BF4A
:102650004021C4F202018F4221D058211AE000BF6C
:1026600040F24041C4F202018F4218D040F258417A
:1026700010E000BFA021C4F202018F420FD0B821A8
:1026800008E000BF40F2B841C4F202018F4206D018
:1026900040F2A041C4F202018F42394607D13946C7
:1026A000386820F01E0041F8140B6FF080000A68B3
:1026B000474500EA020008601ADC9F20C4F20200CD
:1026C000874233DC5720C4F2020087425ADC1020D4
:1026D000C4F20200874200F097802820C4F2020072
:1026E000874200F091804020C4F202008AE000BFDF
:1026F00045F22F40C5F6020087422DDC40F2B7407C
:10270000C4F2020087424BDC40F27040C4F2020087
:10271000874279D040F28840C4F20200874273D0E9
:1027200040F2A040C4F202006CE000BF40F227403B
:10273000C4F20200874243DCA020C4F202008742B8
:1027400062D0B820C4F2020087425DD040F210404F
:10275000C4F2020056E000BF45F26B40C5F602002D
:1027600087423FDC45F23040C5F6020087424BD03D
:1027700045F24440C5F60200874245D045F2584034
:102780003EE000BF5820C4F2020087423CD07020D7
:10279000C4F20200874237D08820C4F2020031E040
:1027A00040F2B840C4F2020087422DD045F2084002
:1027B000C5F60200874227D045F21C4020E000BF4A
:1027C00040F22840C4F2020087421DD040F240404F
:1027D000C4F20200874217D040F25840C4F202000F
:1027E00010E000BF45F26C40C5F6020087420BD0F6
:1027F00045F29440C5F60200874205D045F280407C
:10280000C5F60200874204D1206E016821F4807170
:102810000160386820F00100386000BF3868C007E8
:1028200010D002F07DFC401B0628F7D32020606505
:10283000032084F835000120002184F83410BDE81D
:10284000F08100BF2068B04210DC6F21C4F20201A9
:1028500088421DDC3F21C4F20201884234DC102191
:10286000C4F20201884255D028214FE040451BDCCC
:1028700040F23F41C4F2020188422DDC40F2104197
:10288000C4F20201884245D040F228413EE000BF38
:102890009F21C4F20201884228DC7021C4F20201A7
:1028A000884237D0882131E040F29F41C4F20201D2
:1028B000884223DC40F27041C4F20201884229D0F0
:1028C00040F2884122E000BF4021C4F20201884268
:1028D00020D058211AE000BF40F24041C4F202016A
:1028E000884217D040F2584110E000BFA021C4F246
:1028F000020188420ED0B82108E000BF40F2B84182
:10290000C4F20201884205D040F2A041C4F20201A3
:1029100088425BD1D4E9161202F01F023F2303FA6A
:1029200002F28A6040455BDC9F21C4F202018842CA
:1029300014DC5721C4F20201884227DC1021C4F2C2
:102940000201884200F0A2802821C4F202018842DC
:1029500000F09C804021C4F2020195E040F2274142
:10296000C4F2020188421FDCA021C4F202018842A5
:1029700000F08C80B821C4F20201884200F0868009
:1029800040F21041C4F202017EE000BF5821C4F2BF
:10299000020188427AD07021C4F20201884275D0C7
:1029A0008821C4F202016FE040F22841C4F2020122
:1029B00088426BD040F24041C4F20201884265D0A7
:1029C00040F25841C4F202015EE000BFD4E91612A1
:1029D00002F01F02012303FA02F24A604045A3DD20
:1029E00045F22F41C5F60201884217DC40F2B7419B
:1029F000C4F20201884227DC40F27041C4F20201B5
:102A0000884243D040F28841C4F2020188423DD05E
:102A100040F2A041C4F2020136E000BF45F26B4132
:102A2000C5F6020188421FDC45F23041C5F60201BD
:102A300088422BD045F24441C5F60201884225D098
:102A400045F258411EE000BF40F2B841C4F2020115
:102A500088421BD045F20841C5F60201884215D0D4
:102A600045F21C410EE000BF45F26C41C5F6020183
:102A700088420BD045F29441C5F60201884205D048
:102A800045F28041C5F6020188420BD1616EA26E0B
:102A9000E06E4A6030B1016821F480710160D4E9D0
:102AA0001C014160012084F835000020002184F8D9
:102AB0003410BDE8F0810000F0B190F83510022923
:102AC00018D180B540F20F420168C4F2020291426F
:102AD00014DC6F23C4F20203994225DC3F23C4F2C5
:102AE000020399423CDC1023C4F2020399425DD0F8
:102AF000282357E0802141650120704740F26F4351
:102B0000C4F2020399421BDC40F23F43C4F20203C9
:102B100099422DDC40F21043C4F20203994245D0A1
:102B200040F228433EE000BF9F23C4F202039942D3
:102B300028DC7023C4F20203994237D0882331E0A5
:102B400040F29F43C4F20203994223DC40F27043F7
:102B5000C4F20203994229D040F2884322E000BF28
:102B60004023C4F20203994220D058231AE000BF48
:102B700040F24043C4F20203994217D040F2584356
:102B800010E000BFA023C4F2020399420ED0B82384
:102B900008E000BF40F2B843C4F20203994205D0F6
:102BA00040F2A043C4F20203994277D191424FF020
:102BB000040280F8352011DC6F20C4F2020081424B
:102BC00022DC3F20C4F20200814239DC1020C4F232
:102BD0000200814259D0282054E000BF40F26F40EB
:102BE000C4F2020081421BDC40F23F40C4F202000A
:102BF00081422DDC40F21040C4F20200814244D0F8
:102C000040F228403EE000BF9F20C4F20200814213
:102C100028DC7020C4F20200814236D0882031E0E6
:102C200040F29F40C4F20200814223DC40F2704037
:102C3000C4F20200814228D040F2884022E000BF66
:102C40004020C4F2020081421FD058201AE000BF89
:102C500040F24040C4F20200814216D040F2584097
:102C600010E000BFA020C4F2020081420DD0B820C5
:102C700008E000BF40F2B840C4F20200814204D034
:102C800040F2A040C4F202008142086820F0010036
:102C900008600021BDE88040084670470A6822F0BD
:102CA0000E020A6045F25742C5F6020291420A68D6
:102CB00022F001020A600FDC45F22F42C5F6020243
:102CC000914219DC45F20842C5F60202914229D030
:102CD00045F21C4222E000BF45F27F42C5F60202E7
:102CE000914213DC45F25842C5F60202914219D0D6
:102CF00045F26C4212E000BF45F23042C5F60202D6
:102D000091420FD045F2444208E000BF45F29442A0
:102D1000C5F60202914205D045F28042C5F6020294
:102D200091421AD1D0E9181CD0E916E30A6822F4BE
:102D300080720A6003F01F01012202FA01F1CEF84D
:102D40000410816ECCF80410C16E31B10A6822F40F
:102D500080720A60D0E91C124A60012180F83510A7
:102D6000026D0021002A80F8341093D0904790E73C
:102D7000406D7047000000002DE9F04782B000214F
:102D8000019140F208010446C2F2004148F2B51236
:102D9000C1F64E32A56D096840F26F490068C4F271
:102DA0000209A1FB021848452E68296816DC9F21FC
:102DB000C4F2020188422DDC5721C4F2020188428C
:102DC00052DC1021C4F2020188427CD02821C4F2D6
:102DD0000201884277D0402170E000BF45F22F42C7
:102DE000C5F60202904229DC40F2B742C4F2020268
:102DF000904245DC40F27041C4F20201884262D048
:102E000040F28841C4F2020188425CD040F2A04105
:102E100054E000BF40F22741C4F2020188423FDC87
:102E2000A021C4F2020188424DD0B821C4F20201AF
:102E3000884248D040F2104140E000BF45F26B426A
:102E4000C5F60202904275DC45F23042C5F6020238
:102E5000904200F0828045F24442C5F60202904260
:102E60007BD045F2584273E05821C4F202018842F7
:102E700029D07021C4F20201884224D088211DE0AB
:102E800040F2B842C4F2020290421CD045F208421D
:102E9000C5F60202904260D045F21C4258E000BFE5
:102EA00040F22841C4F2020188420CD040F2404175
:102EB000C4F20201884206D040F25841C4F2020135
:102EC000884240F05183E16D082201F01F0140F279
:102ED0000F4A8A40C4F2020A324200F0DE805045B6
:102EE0004FF0040312DC6F27C4F20207B8426DDC16
:102EF0003F27C4F20207B84200F39C801027C4F2B7
:102F00000207B84200F0BD802827B5E0484569DCDB
:102F100040F23F47C4F20207B84200F3938040F208
:102F20001047C4F20207B84200F0AB8040F22847D5
:102F3000A2E000BF45F26C42C5F6020290420CD0FE
:102F400045F28042C5F60202904206D045F2944214
:102F5000C5F60202904240F007830268E36D03F079
:102F60001F0304279F400F4218BF12F0040623D10D
:102F700002279F400F4218BF12F0020642D1D940EB
:102F8000090740F1F18212F0080100F0ED820168BA
:102F900021F00E010160012000FA03F16960606513
:102FA00084F83500E16C00294FF0000084F834000B
:102FB00040F0D582D8E200BF11046F6034D491068E
:102FC00036D4016821F00401016031E09F27C4F28A
:102FD0000207B84240DC7027C4F20207B84250D062
:102FE000882749E040F29F47C4F20207B8423BDC21
:102FF00040F27047C4F20207B84242D040F288471C
:103000003AE000BF11046F6000F1B282910600F156
:10301000B382016821F00A010160012084F83500C3
:10302000002084F83400A7E2D00301D4A16C95E21B
:10303000216C93E24027C4F20207B84221D05827FE
:103040001AE000BF40F24047C4F20207B84218D06D
:1030500040F2584710E000BFA027C4F20207B84270
:103060000FD0B82708E000BF40F2A047C4F2020723
:10307000B84206D040F2B847C4F20207B84218BFBF
:10308000082307681F4208D0036823F00403036085
:10309000AA60626D42F00102626501228A403242FA
:1030A0006FD0504510DC6F23C4F2020398421DDC40
:1030B0003F23C4F20203984234DC1023C4F202031B
:1030C000984256D028234FE048451BDC40F23F434E
:1030D000C4F2020398422DDC40F21043C4F2020312
:1030E000984246D040F228433EE000BF9F23C4F2FE
:1030F0000203984228DC7023C4F20203984238D0BD
:10310000882331E040F29F43C4F20203984223DC5B
:1031100040F27043C4F2020398422AD040F288433E
:1031200022E000BF4023C4F20203984221D058237A
:103130001AE000BF40F24043C4F20203984218D0A4
:1031400040F2584310E000BFA023C4F202039842AB
:103150000FD0B82308E000BF40F2A043C4F202033E
:10316000984206D040F2B843C4F20203984240F0BD
:10317000058243691B0604D5AA60626D42F0020213
:10318000626504228A4032426FD0504510DC6F23C2
:10319000C4F2020398421DDC3F23C4F202039842AA
:1031A00034DC1023C4F20203984256D028234FE0A7
:1031B00048451BDC40F23F43C4F2020398422DDC39
:1031C00040F21043C4F20203984246D040F2284332
:1031D0003EE000BF9F23C4F20203984228DC702324
:1031E000C4F20203984238D0882331E040F29F4372
:1031F000C4F20203984223DC40F27043C4F202039B
:1032000098422AD040F2884322E000BF4023C4F213
:103210000203984221D058231AE000BF40F24043F5
:10322000C4F20203984218D040F2584310E000BFA5
:10323000A023C4F2020398420FD0B82308E000BFD5
:1032400040F2A043C4F20203984206D040F2B843D1
:10325000C4F20203984240F0998103689B0704D5A9
:10326000AA60626D42F004026265102202FA01F166
:10327000314200F0818050454FF0080210DC6F238E
:10328000C4F2020398421DDC3F23C4F202039842B9
:1032900034DC1023C4F20203984256D028234FE0B6
:1032A00048451BDC40F23F43C4F2020398422DDC48
:1032B00040F21043C4F20203984246D040F2284341
:1032C0003EE000BF9F23C4F20203984228DC702333
:1032D000C4F20203984238D0882331E040F29F4381
:1032E000C4F20203984223DC40F27043C4F20203AA
:1032F00098422AD040F2884322E000BF4023C4F223
:103300000203984221D058231AE000BF40F2404304
:10331000C4F20203984218D040F2584310E000BFB4
:10332000A023C4F2020398420FD0B82308E000BFE4
:1033300040F2A043C4F20203984206D040F2B843E0
:10334000C4F20203984218BF04220368134213D048
:10335000A96001684903016808D4C90508D4016857
:1033600021F008010160216C21B905E008034FD468
:10337000216C09B120468847E06D00F01F01202034
:1033800000FA01F2324200F0AD802068102350456F
:1033900010DC6F27C4F20207B8421DDC3F27C4F2DD
:1033A0000207B84238DC1027C4F20207B8425AD0EC
:1033B000282753E048451BDC40F23F47C4F2020790
:1033C000B84231DC40F21047C4F20207B8424AD09A
:1033D00040F2284742E000BF9F27C4F20207B842EC
:1033E0002CDC7027C4F20207B8423CD0882735E0B5
:1033F00040F29F47C4F20207B84227DC40F2704710
:10340000C4F20207B8422ED040F2884726E000BF3F
:10341000A16C0029AED1AFE74027C4F20207B84241
:1034200021D058271AE000BF40F24047C4F20207FB
:10343000B84218D040F2584710E000BFA027C4F2AD
:103440000207B8420FD0B82708E000BF40F2A047FB
:10345000C4F20207B84206D040F2B847C4F20207ED
:10346000B84218BF022307681F423BD0AA6094F8F5
:103470003520042A02681DD122F01602026042693A
:1034800022F080024261226C0AB9A26C1AB1026871
:1034900022F0080202603F208840A860012084F8E2
:1034A0003500216D00294FF0000084F8340056D11A
:1034B0005AE000BF510301680CD4C9050ED401685D
:1034C00021F010010160012084F83500002084F80B
:1034D000340003E0080301D4616C00E0E16B09B142
:1034E00020468847606D00283ED0606DC00734D00C
:1034F000042084F8350020684FEA9821026822F001
:1035000001020260019A013201928A421AD80268CD
:10351000D20717D0019A013201928A4212D802686A
:10352000D2070FD0019A013201928A420AD802686A
:10353000D20707D0019A013201928A4202D802686A
:10354000D207DFD10068C0074FF0030008BF012099
:1035500084F83500002084F83400E16C21B1204665
:1035600002B0BDE8F047084702B0BDE8F08700BFF1
:10357000D00301D4616CF1E7E16BEFE7026804224C
:103580008A4032427FF401AE6FE600BF02686CE60B
:103590002DE9F04381B0044601F0C2FD002C00F09B
:1035A000AF8040F26F4805462068C4F202084045EB
:1035B00016DC9F21C4F2020188422DDC5721C4F29F
:1035C0000201884254DC1021C4F20201884200F05A
:1035D0007E802821C4F20201884278D0402171E027
:1035E00045F22F41C5F60201884229DC40F2B7417D
:1035F000C4F20201884247DC40F27041C4F2020189
:10360000884264D040F28841C4F2020188425ED010
:1036100040F2A04156E000BF40F22741C4F202014F
:10362000884241DCA021C4F2020188424FD0B82177
:10363000C4F2020188424AD040F2104142E000BF89
:1036400045F26B41C5F60201884200F3BB8045F2AA
:103650003041C5F60201884200F0C78045F244417E
:10366000C5F60201884200F0C08045F25841B7E03B
:103670005821C4F20201884229D07021C4F202010B
:10368000884224D088211DE040F2B841C4F20201F2
:1036900088421CD045F20841C5F60201884200F07C
:1036A000A48045F21C419BE040F22841C4F2020193
:1036B00088420CD040F24041C4F20201884206D058
:1036C00040F25841C4F20201884240F023810221B5
:1036D00084F83510002184F83410016821F00101CC
:1036E000016000BF20680168C9070DD001F018FD16
:1036F000401B0628F6D320206065032084F835009F
:10370000012001B0BDE8F08348F23F0204F1080651
:103710000168CFF610621140D4F818C06CCE114386
:103720001943E3692943256A0E43616A3343042937
:1037300043EA050343EA0C0303D1D4E90B652E43A6
:103740003343666843F48012A6F13F07A6F12905CA
:10375000042FA6F1470938BF1346062DA6F14F0ED8
:1037600038BF1346B9F1020F26F0030738BF1346DE
:10377000BEF1040F38BF1346742F08BF1346042947
:103780000360426922F0070241EA020140F0DE8054
:10379000D4E90A53002B41EA050100F0D780BCF5BB
:1037A000005F00F0B980BCF1000F40F0C180022D35
:1037B00000F0C180012D00F0B580002D00F0BB802D
:1037C000C4E000BF45F26C41C5F6020188420CD04E
:1037D00045F28041C5F60201884206D045F2944187
:1037E000C5F60201884240F0958004F1080E0221DE
:1037F00084F83510002184F834100168A3699EE82C
:103800000450A2F18005E769B5FA85F566696D098E
:10381000402A4FEA853543EA07026FF3101142EA66
:10382000060208BF102541EADC0142EA0E02236AC3
:10383000294341EAD20141EA131140F80819C0B204
:10384000CD2148433C2101EA9020E0652046FDF768
:10385000CBFDE16D012201F01F0102FA01F141608F
:103860002068404500F381809F21C4F20201884214
:1038700014DC5721C4F20201884227DC1021C4F273
:103880000201884200F0C7802821C4F20201884268
:1038900000F0C1804021C4F20201B9E040F22741AA
:1038A000C4F20201884221DCA021C4F20201884254
:1038B00000F0B180B821C4F20201884200F0AB8070
:1038C00040F21041C4F20201A2E000BF5821C4F24C
:1038D0000201884200F09F807021C4F202018842F8
:1038E00000F099808821C4F2020191E040F2284161
:1038F000C4F20201884200F08E8040F24041C4F2DE
:103900000201884200F0878040F25841C4F202016F
:103910007EE000BF4020EFE6032D17D8DFE805F07A
:103920000E0B0E02A3F1C072B2FA82F2520904E049
:10393000032D03D30AD1C3F300623AB1402060657E
:10394000012084F8350001B0BDE8F08341612046D4
:10395000FDF74AFDE16D3F2201F01F0102FA01F17E
:103960008160206840457FF77FAF45F22F41C5F663
:103970000201884216DC40F2B741C4F202018842DB
:1039800026DC40F27041C4F20201884243D040F28A
:103990008841C4F2020188423DD040F2A041C4F205
:1039A000020135E045F26B41C5F6020188421FDC99
:1039B00045F23041C5F6020188422CD045F244411F
:1039C000C5F60201884226D045F258411EE000BFEC
:1039D00040F2B841C4F2020188421CD045F20841CD
:1039E000C5F60201884216D045F21C410EE000BF28
:1039F00045F26C41C5F6020188420CD045F2944173
:103A0000C5F60201884206D045F28041C5F60201A2
:103A1000884240F0E18045F2574C45F6FC01C5F67E
:103A2000020CC5F6020160450EDC45F22F42C5F6D8
:103A30000202904218DC45F20842C5F602029042AA
:103A400028D045F21C4221E045F27F42C5F6020231
:103A5000904213DC45F25842C5F60202904219D05A
:103A600045F26C4212E000BF45F23042C5F6020258
:103A700090420FD045F2444208E000BF45F2944224
:103A8000C5F60202904205D045F28042C5F6020218
:103A9000904247D100F0FC024CF6CD43083ACCF6F8
:103AA000CC43A2FB0323A1F1FC05A1F17C061B0979
:103AB00005EB830503F01F02A3682566802B4FF0FA
:103AC000010303FA02F26666A26605D10020606077
:103AD000286072601EE000BF6768FBB2013F072FDD
:103AE0002B60726016D85E1E082E19D2604501F157
:103AF000440237DC45F22F47C5F60207B84241DCE5
:103B000045F20847C5F60207B84259D045F21C47AE
:103B10004AE000BF00206067C4E91B005CE000BF12
:103B2000E06E54E000F0F8024AF6AB23103ACAF611
:103B3000AA23A2FB032740F20F43C4F20203082585
:103B40003A09984203F1AA06134688BF05EB1713FA
:103B500040F60005B042C4F2020505F1800628BF18
:103B60001346A5E745F27F47C5F60207B84213DCC6
:103B700045F25847C5F60207B84221D045F26C47D6
:103B800012E000BF45F23047C5F60207B84217D031
:103B900045F2444708E000BF45F28047C5F60207FA
:103BA000B8420DD045F29447C5F60207B84207D097
:103BB00040F60000C4F2020000F1FC0100F5A07222
:103BC00001EB83000121E066B140226761670021BB
:103BD0000160D4E91C01416000206065012184F886
:103BE000351001B0BDE8F08340B1B0B5054690F89E
:103BF0003400012804D10220B0BD00BF012070476D
:103C0000012085F8340095F83500012828D10220DC
:103C100085F83500002068652868046824F00104F0
:103C200004602846FDF774FC40F20F422868C4F295
:103C3000020240F26F419042C4F2020118DC6F238D
:103C4000C4F20203984225DC3F23C4F202039842E7
:103C50003CDC1023C4F2020398425ED0282357E0D4
:103C60004FF400606865002085F834000120B0BD85
:103C700088421BDC40F23F43C4F2020398422DDC31
:103C800040F21043C4F20203984246D040F2284367
:103C90003EE000BF9F23C4F20203984228DC702359
:103CA000C4F20203984238D0882331E040F29F43A7
:103CB000C4F20203984223DC40F27043C4F20203D0
:103CC00098422AD040F2884322E000BF4023C4F249
:103CD0000203984221D058231AE000BF40F240432B
:103CE000C4F20203984218D040F2584310E000BFDB
:103CF000A023C4F2020398420FD0B82308E000BF0B
:103D000040F2B843C4F20203984206D040F2A04306
:103D1000C4F20203984240F02F8103680B2464F33D
:103D2000440303602B6C1BB1082304682343036026
:103D3000884219DC9F23C4F20203984232DC5723E5
:103D4000C4F20203984259DC1023C4F202039842E1
:103D500000F096802823C4F20203984200F090807D
:103D60004023C4F2020389E045F22F43C5F6020363
:103D700098422DDC40F2B743C4F2020398424BDC78
:103D800040F27043C4F20203984279D040F2884373
:103D9000C4F20203984273D040F2A043C4F202037B
:103DA0006CE000BF40F22743C4F20203984243DCB8
:103DB000A023C4F20203984262D0B823C4F20203E3
:103DC00098425DD040F21043C4F2020356E000BFB7
:103DD00045F26B43C5F6020398423FDC45F230439F
:103DE000C5F6020398424BD045F24443C5F60203A0
:103DF000984245D045F258433EE000BF5823C4F2F4
:103E0000020398423CD07023C4F20203984237D098
:103E10008823C4F2020331E040F2B843C4F2020343
:103E200098422DD045F20843C5F60203984227D0A8
:103E300045F21C4320E000BF40F22843C4F20203D5
:103E400098421DD040F24043C4F20203984217D07A
:103E500040F25843C4F2020310E000BF45F26C4345
:103E6000C5F6020398420BD045F29443C5F602030F
:103E7000984205D045F28043C5F60203984274D1BA
:103E80002B6E1C68E40303D51C6844F480741C602A
:103E9000EB6E1BB11D6845F480751D60904211DC0E
:103EA0006F21C4F2020188421EDC3F21C4F20201EC
:103EB000884235DC1021C4F20201884255D0282105
:103EC00050E000BF88421BDC40F23F41C4F20201D7
:103ED00088422DDC40F21041C4F20201884244D0F5
:103EE00040F228413EE000BF9F21C4F20201884217
:103EF00028DC7021C4F20201884236D0882131E0EA
:103F000040F29F41C4F20201884223DC40F270413A
:103F1000C4F20201884228D040F2884122E000BF6A
:103F20004021C4F2020188421FD058211AE000BF8C
:103F300040F24041C4F20201884216D040F258419A
:103F400010E000BFA021C4F2020188420DD0B821C8
:103F500008E000BF40F2B841C4F20201884204D038
:103F600040F2A041C4F202018842016841F001011F
:103F700001600020B0BD00BF0368052464F3430363
:103F800003602B6C002B3FF4D3AE0423CDE600007E
:103F9000B0B5044601F0C4F840F200010546C2F293
:103FA0000041621C097818BF0C4400BF01F0B8F84A
:103FB000401BA042FAD3B0BD90F89830013B012BD2
:103FC0000ED80068836D0B4212D0836D0B408B427C
:103FD00016D1C36D43F00203C3658B0514D418E0FA
:103FE00000F19C01012002220B681A430A6070470D
:103FF000C36D43F00103C3658B0505D409E000BF21
:104000000323C3658B0504D5D0F8E0301343C0F813
:10401000E0304B0504D5D0F8E4301A43C0F8E42072
:104020004FF6FF72436DC3F6CF720A401A434265E2
:104030008A0F4AF614010020C4F200010B681A43EB
:104040000A6070470000000090F89830022B1BD1E6
:104050002DE9F0430668D6F8C03013F07C5F1BD022
:10406000D6F8C4309B0221D4D6F8C4300C69C3F30F
:10407000044CD1E90035002D8D6821D023432B431A
:1040800043F0804E20E000BFD0F89C1041F00801C2
:10409000C0F89C1001207047D0F89C1041F020011E
:1040A000C0F89C100120BDE8F08300BFD0F89C1040
:1040B00041F40071C0F89C100120BDE8F08300BFFE
:1040C00044EA834343EA050E836ED0F88450D1E975
:1040D00007970CFB03F48B6949EA0767D1F8148052
:1040E000D1F80C901F4305EB840347EA080745F815
:1040F00024E047EA09475F60CF6887B145F2307531
:10410000083303320024C0F6010500BF171957F821
:10411000037C1F51CF680434EF5DBC42F6D301210C
:1041200001FA0CF1C6F8D010C0F894100020BDE8D8
:10413000F083000000000000704700000000000055
:1041400090F89820013A012A0CD880B50A68002A14
:10415000CA680FD00B69072A43EA427E18D18B69DF
:104160001BE000BFD0F89C1041F00201C0F89C1089
:1041700001207047072A19D10A69D1E906C3120440
:1041800042EA032242EA0C0242F0605218E000BF09
:10419000D1F808C04B6943EA8C73006F496800EBA3
:1041A000C10240F831E05360002080BD8B68D1E946
:1041B00004CE9B0743EAC26242EA0C4242EA0E0284
:1041C0004968C06E40F82120002080BD000000003A
:1041D00090F898C0BCF1010F0ED19200006842EA3D
:1041E0000111DDF800C041EA430141EA0C01C0F8C9
:1041F00080100020704700BFD0F89C1041F00401EF
:10420000C0F89C10012070477047000000000000BB
:1042100070470000000000002DE9F04390F898700E
:10422000022F11D1402919D10668D6F8A07017F4D1
:10423000FE0F2FD0D6F8A4707F0635D0D6F8A47024
:10424000FF013BD400273CE0D0F89C1041F008016E
:10425000C0F89C100120BDE8F08300BF41290FD1B8
:104260000668D6F8B07017F4FE0F13D0D6F8B47005
:104270007F0619D0D6F8B470FF012BD400272CE0AC
:10428000076D8F4206D900F17C04456D4FF0000C9C
:104290000E462BE0D0F89C1041F02001C0F89C1095
:1042A0000120BDE8F08300BFD0F89C1041F480717C
:1042B000C0F89C100120BDE8F08300BFD6F8A070C4
:1042C000FF0FD6F8A46000F17404C6F30526F519B3
:1042D000466C0AE0D6F8B070FF0FD6F8B46000F173
:1042E0007804C6F30526F519C66CAC4675432468F8
:1042F00004EB850E54F8257017F08047576054F88A
:10430000257027F0604608BFC7F38A46166054F848
:10431000257007F00057976054F8254004F00044DA
:104320001461BEF80440D461BEF8064014F00F04D6
:10433000D460DEF8044004F480145461DEF80440D4
:1043400004F4001494619EF8074004F07F041462A2
:10435000DEF804404FEAD474546228D045F2307835
:104360000024C0F601080EEB0406651C377A1F55C1
:10437000D76818F80770BD4219D21F19757A7D7079
:10438000D56818F80590A51C4D453FBFB57ABD709E
:10439000D56818F805903CBFE51C4D4507D2F57A65
:1043A0000434FD70D56818F80550AC42DBD34029C1
:1043B00006D10068C0F8A8C00020BDE8F08300BFA7
:1043C000412905D10068C0F8B8C00020BDE8F083DD
:1043D0001F2909D80068012202FA01F1C0F89810DB
:1043E0000020BDE8F08300BF006801F01F0101223A
:1043F00002FA01F1C0F89C100020BDE8F083000033
:1044000070470000000000002DE9F04F89B004461D
:104410004AF61000C4F2000001684AF61400C4F223
:1044200000000268206802EA0108056DD0F8549087
:10443000036D0893436D0793036D0293436D0193DE
:10444000076D436D0593036D0493436D0393D0F89B
:1044500054A0D0F850B05FEACA5306970FD51BF4AA
:1044600080710CD04FF4807101654AF61001002074
:10447000C4F2000108602046FFF7C2FF20685FEA2F
:104480004A5105EA09064FEA887717D54AF6100916
:104490001BF48061C4F2000914D0D0F8DC10D0F80D
:1044A000E42011404FF4806202650020C9F800004A
:1044B000204600F0B9FC206804E000BF4AF610096D
:1044C000C4F20009DDE9072101EA020506F470469D
:1044D00057B10021016508F00300C9F8000020462B
:1044E0003946FFF729FE2068DDE90121DDF80C805F
:1044F00001EA020705F00F0546B106650020C9F87C
:1045000000002046314600F097FC206807F0F006D6
:1045100045B105650020C9F800002046294600F095
:10452000EFFB2068DDE9045746B106650020C9F8B5
:1045300000002046314600F03FFC2068069E5FEAFE
:104540000A510CD51BF4006109D04FF400610165DC
:104550000020C9F80000204600F072FC20685FEAE5
:104560008A5111D51BF400710ED0D0F8D810D0F8B4
:10457000E02011404FF4007202650020C9F80000ED
:10458000204600F055FC20685FEA0A310CD51BF488
:10459000002109D04FF4002101650020C9F8000076
:1045A000204600F0A9FB20685FEACA310CD51BF455
:1045B000803109D04FF4803101650020C9F8000036
:1045C000204600F02DFC20685FEA4A3105EA080524
:1045D0000CD51BF4802109D04FF480210165002007
:1045E000C9F80000204600F017FC20685FEA8A3115
:1045F00006EA070205F060710ED51BF400330BD0FC
:104600004FF4003303650023C9F80030D4F89C3020
:1046100043F08003C4F89C3002F0715539B1016554
:104620000020C9F800002046FFF7F2FD206845B1E0
:1046300005650021C9F80010D4F89C102943C4F87E
:104640009C10A9F5016188420AD0D4F89C0000288A
:1046500068D0204609B0BDE8F04FFFF7D5BD00BFD8
:10466000606881688907F0D0016A426A036A476A14
:10467000114003EA070202F03005D0F82080D0F89C
:104680002490D0F820B0D0F824A0026A089211F04B
:104690000F01426A0792466A026A069203D00162DB
:1046A000204600F0ADFB08EA09072DB160682946F5
:1046B0000562204600F0ACFB70060BEA0A0607F420
:1046C000C0750ED5069810F040000AD060684023EF
:1046D000C16BC26B090C02F03F020362204600F07E
:1046E00093FBDDE9071000EA010706F4FC462DB153
:1046F000606829460562204600F07EFB07F4F02042
:1047000036B161680E62D4F89C103143C4F89C1035
:1047100000289AD061680862D4F89C100843C4F855
:104720009C0092E709B0BDE8F08F00000000000097
:10473000F0B12DE9F04F83B04AF200080446C4F20C
:1047400000080068404533D094F89810B9B38169E7
:1047500021F01001816100F0E3FC054620688169C9
:10476000090707D500F0DCFC401B0B28F6D312E04C
:1047700001207047816941F00101816100F0D0FCA6
:10478000054600BF20688169C90721D100F0C8FC37
:10479000401B0B28F6D30120D4F89C100843C4F822
:1047A0009C00032084F89800012003B0BDE8F08F3E
:1047B00008F58071616094F898100029C7D1002035
:1047C00084F89900204600F0B3F92068BFE700BFE5
:1047D000816941F002018161217C826922F04002FD
:1047E000012918BF40328261617C826922F48042D3
:1047F000012908BF02F580428261A17C826922F40E
:104800008052012918BF02F580528261816921F42A
:104810004073D4E902120B438361836923F0A4033C
:104820008361036923F0100303619AB1012A0DD05B
:10483000022A09D08369032A43F080038361036954
:1048400043F01002026105D1202200E004228369B6
:104850001A438261D4E90572E369561E6FF0FF02C4
:10486000256A02EB0323B1F5407F43EA4663A5F1D5
:10487000010646EA030640F20003CFF6FF7303EB9E
:10488000074746EA0701C16110D1D4E90B65D4E9B5
:104890000917013F02EB06226FF00F063A4306EBC1
:1048A00005173A4303EB01411143C160236E2BB15D
:1048B000616ED0F8C0201143C0F8C010E16DCDE9A1
:1048C0000113D94245F25C41C0F6010109D0D0F88C
:1048D000C820A36E22F0070251F823301A43C0F813
:1048E000C820D4F840A0BAF1000F09D0D0F8BC20FD
:1048F000636C22F0070251F823301A43C0F8BC2041
:10490000D4F848C0BCF1000F0AD0D0F8BC20E36C4A
:1049100022F0700251F8233042EA0312C0F8BC20A2
:10492000D4F850B0BBF1000F0AD0D0F8BC20636DB2
:1049300022F4E06251F8231042EA0121C0F8BC10D1
:10494000404504D161688A6822F003028A60002130
:10495000C4F89410C4F89C10012184F8981004F154
:104960003409D0F884104FF6FC729143656C99E8D5
:104970000C02009541EA8201C0F88410D0F884103E
:1049800021F47F0141EA0341C0F884109918D0F85E
:1049900088306FF38F0343EA8103C0F88830D0F882
:1049A000883023F4FE0343EA0943C0F8883001EB62
:1049B0004903D0F8A0606FF38F0646EA8306C0F87B
:1049C000A060D0F8A06026F4FE0646EA0A46C0F8C9
:1049D000A06005FB0A36D0F8B0306FF38F0343EACE
:1049E0008603C0F8B030D0F8B03023F4FE0343EAB9
:1049F0000C43C0F8B030E36CD0F8AC506FF38F05C7
:104A000003FB0C6645EA8605C0F8AC50D4F8548028
:104A100008FB0B65D0F8F0606FF38F0646EA850659
:104A2000C0F8F060D0F8F0E0A66D2EF47C1747EAED
:104A30000647C0F8F070F70007EB8507D0F8C050C4
:104A40006FF38F052F43C0F8C070D0F8C070009D81
:104A500027F47C1705FB0AF5DDF804A003FB0C53D3
:104A600047EA0A47C0F8C0704AF20007D0F8C0E031
:104A7000C4F20007DDF808C007F5406707EB8202C3
:104A800007EB81012EF07C5747EA0C67C0F8C07035
:104A900001EBC90008FB0B372167A16E00EB850510
:104AA000606700EB8303E266C4E91E530AFB01F36F
:104AB00000EB87000CFB01F1C4F8800000EBC6009E
:104AC000C4F8840000EB8300C4F8880000EB810088
:104AD0004DF2FC31C4F20001C4F89000884201D9C3
:104AE000202059E682421FD21146002041F8040BD3
:104AF000D4F890309942BFF458AE506002F10801EA
:104B0000D4F8903099423FBF906002F10C01D4F884
:104B100090309942BFF449AED0601032D4F8901072
:104B20008A42E1D341E600BF002003B0BDE8F08F28
:104B3000B0B5B6B0044602A8B8210025CDE9345579
:104B4000CDE932553195FBF7A4FD4DF200412068C7
:104B5000C4F20001884241D04AF20041C4F200018F
:104B6000884273D04AF20001C4F20001884240F04A
:104B7000BF80002003904FF4004002904FF080501F
:104B80001D9002A802F0E8FC08B1FCF75DFE40F2BF
:104B9000A06144F2E040C2F20041C5F602000A689A
:104BA000002A02F101020A6008D1C16841F4807153
:104BB000C160C16801F480710191019901681524F7
:104BC00041F0080101600068132500F00800019021
:104BD000019803203190092133E000BF4FF40040D9
:104BE00002904FF080501D9002A8039502F0B4FC93
:104BF00008B1FCF729FE40F2A06144F2E040C2F2A5
:104C00000041C5F602000A68002A02F101020A60AA
:104C100008D1C16841F48071C160C16801F480713C
:104C2000019101990168A02441F008010160006828
:104C30009F2500F008000190052101984FF4405095
:104C4000319040F60040C5F6020038E000200390A5
:104C50004FF4004002904FF080501D9002A802F0E7
:104C60007BFC08B1FCF7F0FD40F2A06144F2E040AB
:104C7000C2F20041C5F602000A68002A02F10102F0
:104C80000A6008D1C16841F48071C160C16801F453
:104C90008071019101990168162441F002010160BF
:104CA0000068142500F00200019001986020319006
:104CB00040F60040C5F602000921A0F500603591DC
:104CC00031A9022232920022CDE9332200F044F9C8
:104CD00005210022284600F0EBFA284600F0D4FA1D
:104CE00005210022204600F0E3FA204600F0CCFA2D
:104CF00036B0B0BD000000007047000000000000AA
:104D0000C90708BF70474CF6A461C2F2004188424F
:104D10000CD04CF64471C2F20041884222D04CF6CD
:104D2000E471C2F20041884230D07047B0B540F221
:104D3000A43440F29C254CF6A460C2F20044C2F2B6
:104D40000045C2F20040402122462B46FFF764FA9C
:104D50004AF618502168C2F200402A46BDE8B04029
:104D600007F076B840F2A43040F29C21C2F2004035
:104D7000C2F2004100F128024CF6447001F1080330
:104D8000C2F200404021FFF747BA00BF40F2A43012
:104D900040F29C21C2F20040C2F2004100F15002F8
:104DA0004CF6E47001F11003C2F200404021FFF71D
:104DB00033BA00000000000070470000000000004F
:104DC00090F8981001290DD1022180F898100168FF
:104DD0008A6922F001028A610021C0F89C1008460D
:104DE000704700BFD0F89C1041F00401C0F89C103F
:104DF0000120704700000000704700000000000024
:104E00007047000000000000704700000000000034
:104E10007047000000000000704700000000000024
:104E20007047000000000000704700000000000014
:104E30007047000000000000704700000000000004
:104E40007047000000000000002908BF70472DE9EE
:104E5000F04F81B000F1264242F2004702F1FF72AA
:104E60008305C5F602070A26B84243EA922208BF24
:104E70000926082A40F2040B38BF1646C5F6000B77
:104E800000220096002700264FF00F0C24E000BF00
:104E90006FF00304032304EA5604056893400444B6
:104EA0001D43056007F01C050CFA05FE256A25EA7E
:104EB0000E052562C5689D43C560456825EA0A055B
:104EC0004560856825EA030383600136043731FABB
:104ED00006F302F102023BD0012303FA06FA1AEAB2
:104EE0000108F2D040F2084326F00305C5F600039E
:104EF00007F00C0E0CFA0EF9ED58009B05EA0905B7
:104F000003FA0EF39D42C3D1DBF87C304FF0B0447E
:104F100023EA0803CBF87C30DBF8803023EA08036F
:104F2000CBF88030DBF8003023EA0803CBF8003000
:104F30002568B30825EA0805256040F20844C5F64F
:104F4000000454F8235025EA090544F823509FE74C
:104F500001B0BDE8F04F70472DE9F04F82B00D6809
:104F6000002D00F0C78000F1264242F2004402F119
:104F7000FF728305C5F602040A27A04243EA922283
:104F800008BF0927082A40F2040C38BF1746C5F6A7
:104F9000000C4FF0000E0097002700260AE000BF2B
:104FA00001360D6835FA06F207F102070EF1040E1C
:104FB00000F0A080012202FA06FB15EA0B08EFD0F0
:104FC000D1F804A003220AF0030502FA07F36C1ECD
:104FD0006FEA0309012C0FD88368CC6803EA090340
:104FE000BC4023438360CAF30014436823EA0B03E5
:104FF000B4402343436003E0032D01D1032520E0A7
:10500000C3688C6803EA0903BC40022D43EA040329
:10501000C36016D16FF003020EF01C0502EA5603BE
:105020000F22034402FA05FBD3F820A00C692AEAF8
:105030000B0AAC4044EA0A041C62D1F804A00AF04E
:105040000305036805FA07F403EA09031AF4403F6D
:1050500043EA04030360A3D044F2F44240F2084A56
:10506000C5F60202C5F6000A136843F00203136096
:1050700013680F2203F00203019326F00303019C3F
:105080000EF00C0453F80A9002FA04F5009A29EA8B
:10509000050502FA04F44FF0B0492C4343F80A40E6
:1050A000D9F800304C6843EA0805E20258BF23EA09
:1050B0000805C9F80050A502DCF8002042EA080300
:1050C00058BF22EA0803A503CCF80030DCF88020A2
:1050D00042EA080358BF22EA0803E403CCF8803010
:1050E000DCF87C2042EA080358BF22EA0803CCF827
:1050F0007C3055E702B0BDE8F08F000000000000F2
:105100000069084018BF012070470000000000003F
:10511000002A08BF090481617047000000000000F8
:1051200041F67410C2F201400068704700000000B0
:1051300040F2000041F67411C2F20040C2F2014197
:1051400000780A6810440860704700000000000002
:1051500080B5032000F0DCF803F03AF944F218417E
:1051600045F20853C5F60201C0F601030A68C2F30E
:1051700003229A5C096801F00F0102F01F02595CDA
:10518000D04040F20C02C2F2004201F01F0120FAAE
:1051900001F1116040F20801C2F2004108600F20E5
:1051A00000F00AF800281CBF012080BD00F054F870
:1051B000002080BD000000000F2843D8B0B58AB0A1
:1051C0000446A12000222146002500F071F8A1200C
:1051D00000F05AF840F20400C2F20040046044F2C9
:1051E000EC40C5F60200016841F080710160006882
:1051F00001A900F080700290029802A803F034F830
:1052000003F0B6F84DF683614000C4F21B314EF254
:105210000002A0FB01014DF22070C2F200404FF0ED
:10522000FF33C4F20002026003EB9141C0E90115B3
:1052300040F2E731C0E9031503F0DAFF20B10120A5
:105240000AB0B0BD012070474DF22070C2F200409C
:1052500004F002F80AB0B0BD81B044F2F44000227C
:10526000C5F60200016841F00201016000680F21EB
:1052700000F0020000906FF00100009B01B000F010
:1052800017B8000000000000002848BF704700F079
:105290001F01012202FA01F14EF20012C0F34A107E
:1052A000CEF2000242F8201070470000000000001B
:1052B00070B54EF60C5C4FF0FF36CEF2000C00F1EC
:1052C000604505F56445DCF80030C3F3022E8EF02E
:1052D0000703042B28BF0423BEF1030406FA03F3DB
:1052E00021EA030100F00F0338BF0024043B00282B
:1052F000634406FA04F048BF03F10C05A14022EA1A
:10530000000008430001287070BD0000000000008C
:105310004EF60C514FF6FF03CEF200010A681A4018
:1053200060F30A2242F0806040F0FD700860704730
:105330002DE9F04F8EB04BF204480023C5F200284F
:105340000693CDE90233CDE90433D0F800A0D8F8B4
:10535000000000F00303012B78D10123029300F039
:105360003003102B77D000F44073B3F5807F01D168
:105370000123049300F4A02340F2010EB3F5803F13
:10538000C0F2001E70D18303734658BF4FF0011363
:10539000059300F0A063B3F1807F6AD0D8F80400D1
:1053A00000F00303012B70D10223029300F03003BD
:1053B000102B6ED000F44073B3F5807F01D102232F
:1053C000049300F4A02340F2020BB3F5803FC0F237
:1053D000010B05D183035B4648BF0EF10103059322
:1053E00000F0A063B3F1807F05D18001584648BF2B
:1053F0000EF10100069000240C94CDE90A44CDE999
:10540000084458F8040C4FF40073D8F80060C00743
:1054100004BF40F22223C0F20443F00705D086EA1D
:105420000300800701D401240894F0063AD586EAE7
:105430000300800636D44FF00109CDF8249006F41D
:105440004070B0F5407F34D035E000BF00F030034D
:10545000102B7FF488AF0123039300F44073B3F55E
:10546000807F3FF485AF85E700F0A063B3F1807FD4
:1054700094D18001704658BF4FF001100690D8F8C3
:10548000040000F00303012B8ED000F03003102B3A
:1054900090D10223039300F44073B3F5807F8ED044
:1054A0008FE700BF4FF0000906F44070B0F5407F71
:1054B00001D101200A90F0030ED586EA03004003D3
:1054C0000AD4F446B00358BF4FF0011CCDF82CC0ED
:1054D000F00115D504E000BF4FF0000CF0010FD52E
:1054E00086EA030040010BD47546B00158BF4FF067
:1054F00001150C95D8F80400C6070CD005E000BFD4
:105500000025D8F80400C60705D080EA0306B607D0
:1055100001D402240894C60607D580EA0306B6061D
:1055200003D44FF00209CDF8249000F44076B6F58C
:10553000407F01D102260A9645F20002C603C5F259
:1055400000220AD580EA0306760306D4DC468703E8
:1055500048BF0EF1010CCDF82CC0C60109D543405F
:105560005B0106D4800148BF0EF1010B5D46CDF80A
:1055700030B00095BAEB02001368D34618BF012083
:10558000DB07AAEB020301D1002204E0166826F033
:105590000106166001224AF20007CA46C5F200273A
:1055A0003D68ED07B3FA83F502D1B94606E000BFC6
:1055B0003B68B946023223F001033B6000EB400632
:1055C00002AB01926D0903EBC600D0F808E008EBCE
:1055D0008E0757F8042C22F4807247F8042C58F8F0
:1055E000042CD2072AD153F83640002C5CD008EBAB
:1055F000840252F8047C27F0010742F8047C4468D6
:105600003CB108EB840252F8047C27F0100742F802
:10561000047CC4683CB10122A24358F8227027F4EC
:10562000803748F82270006900283DD0012222EA24
:10563000000058F8202022F0807233E045F200028A
:1056400058F8040CC5F2002220F00100934548F8F8
:10565000040C29D108EB8400BAF1000F50F8042C97
:1056600042F0020240F8042C07D008EB8A0050F800
:10567000042C42F0200240F8042CBCF1000F08D0AA
:10568000012020EA0C0058F8202042F4802248F83B
:105690002020009840B10120009A904358F8202023
:1056A00042F0806248F8202005EB4500D1E9002651
:1056B00003EBC00453F830008242656816D145F20E
:1056C000000CAE422B46C5F2002C28D1CA68E36814
:1056D0009A421DD10A6923699A4233461FD158F86C
:1056E000040C40F0010048F8040C48E045F2000CBE
:1056F000AE423346C5F2002C11D08A68A3689A42A4
:1057000003D0CA68E3689A4204D12B4607E000BF81
:10571000334604E00A6923699A422B462FD108EBED
:10572000800050F8042C22F0010240F8042C3BB118
:1057300008EB830050F8042C22F0100240F8042CEF
:10574000D4E9022008EB820252F8043C23F480736F
:1057500042F8043C40B1012222EA000058F820201F
:1057600022F4803248F82020206940B1012222EA48
:10577000000058F8202022F0807248F82020886825
:105780004FF48072E34508EB800050F8043C18BFEA
:105790004FF4407223F440731A4440F8042C4869D3
:1057A00058F8042C431EC2F3074293420BD900233E
:1057B00058F8042CCFF6FF7322F47F0203EB00406D
:1057C000104348F8040C58F8042C08680138D20734
:1057D00058F8203023F0030328D10122E34518BFF5
:1057E00003221A4348F82020486860B108EB800083
:1057F0001022E34550F8043C18BF302223F0200368
:105800001A4340F8042CC868C20327D4B0B301225D
:10581000E34522EA00004FF0807258F8203023F070
:10582000E06318BF4FF0A06225E000BF43F0010223
:1058300048F82020486840B108EB8000012350F868
:10584000042C63F3051240F8042CC868C20329D461
:10585000A8B34FF080736FF0E06427E00122E345C6
:1058600022EA00004FF4803258F8203018BF4FF47D
:10587000A02223F4E0231A4448F820200869C10339
:105880002AD4002842D00121E34521EA00004FF04C
:10589000407158F8202022F0E06218BF4FF0E0611C
:1058A00027E000BF4FF480336FF4E024012222EAA6
:1058B000000058F8202022401A4348F820200869A8
:1058C000C10319D410B30121032221EA000058F8C2
:1058D000201062F31A6117E00121E34521EA00007C
:1058E0004FF4403158F8202018BF4FF4E02122F443
:1058F000E022114408E000BF0121032221EA000058
:1059000058F8201062F3124148F820100199C80796
:1059100006D188070CD400200EB0BDE8F08F00BF80
:10592000DCF8000040F00100CCF800008807F2D558
:10593000D9F8000040F00100C9F8000000200EB0C6
:10594000BDE8F08F0000000080B110B5044600688B
:10595000016821F001010160816821F0020181608C
:10596000204600F099F80020206510BD0120704706
:10597000F0B581B00446FFF7D3FB002C00F089801E
:10598000054600206065216D11B101B0F0BD00BF7A
:10599000204600F0B1F8206841F28836A6654FF63F
:1059A000F40ED4E903C263698168CFF6E00E0027E4
:1059B000CFF6FF7701EA0E0107EB024241EA0C0144
:1059C0006FF0FF0E676B11430EEB03223943E3695F
:1059D000114319438160C168226A21F4E021114317
:1059E000C160216BA26B42EA01410161E16B41613F
:1059F0000168626821F4F8510EEB02221143016044
:105A0000016A890609D500BFFFF78AFB401BB04237
:105A100038D82068016A8906F6D4C168A268D4E93A
:105A2000097621F0FF01013FA3693943C160022BD0
:105A3000016821F0400141EA02010160D0F808113B
:105A4000E26A21F0A04141EA060141EA0201C0F800
:105A50000811016841F00101016003D1816841F042
:105A600002018160E068B0F1806F05D101202065FE
:105A7000002001B0F0BD00BF02202065002001B071
:105A8000F0BD00BF4FF400702065606D40F0010074
:105A90006065012001B0F0BD4AF200010068C5F266
:105AA0000021884218BF704710B544F2D44000244A
:105AB000C5F60200C5F60204016821F40011016078
:105AC000016821F4002101600A212046FFF7BCF99A
:105AD00004F580600521FFF7B7F904F580504FF415
