:020000040800F2
:100000005807002035160008DD030008DF0300084C
:10001000E3030008E7030008EB030008000000000A
:10002000000000000000000000000000EF030008D6
:10003000F103000800000000F3030008F5030008C6
:100040004F1600084F1600084F1600084F160008FC
:100050004F1600084F1600084F1600084F160008EC
:100060004F1600084F1600084F1600084F160008DC
:100070004F1600084F1600084F1600084F160008CC
:100080004F1600084F1600084F1600084F160008BC
:100090004F1600084F1600084F1600084F160008AC
:1000A0004F1600084F1600084F1600084F1600089C
:1000B0004F1600084F1600084F1600084F1600088C
:1000C0004F1600084F1600084F1600084F1600087C
:1000D0004F160008A91500084F1600084F16000813
:1000E0004F1600084F1600084F1600084F1600085C
:1000F0004F1600084F1600084F1600084F1600084C
:100100004F1600084F1600084F1600084F1600083B
:100110004F1600084F1600084F1600084F1600082B
:100120004F1600084F1600084F1600084F1600081B
:100130004F1600084F1600084F1600084F1600080B
:100140004F1600084F1600084F1600084F160008FB
:100150004F1600084F1600084F1600084F160008EB
:100160004F1600084F1600084F1600084F160008DB
:100170004F1600084F1600084F1600084F160008CB
:100180004F1600084F16000800F002F800F03CF887
:100190000AA090E8000C82448344AAF10107DA45E2
:1001A00001D100F031F8AFF2090EBAE80F0013F0F8
:1001B000010F18BFFB1A43F001031847106E00002F
:1001C000306E0000103A24BF78C878C1FAD85207C0
:1001D00024BF30C830C144BF04680C6070470000C1
:1001E0000023002400250026103A28BF78C1FBD840
:1001F000520728BF30C148BF0B6070471FB502F0DF
:100200000CFC1FBD10B510BD02F04BF91146FFF7F5
:10021000F5FF00F009F802F069F903B4FFF7F2FF07
:1002200003BC01F061F900002DED068B84B09FED59
:100230005F0AB0EE408AA82001F0D4F800F0E4F99B
:1002400000F083FA4FF6FF70AC234FF4A072002148
:100250000090084600F054FB002055490860A3E0D8
:100260004FF6FF70AC234FF4A072002100900846B7
:1002700000F046FB4FF47840AC234FF4A07200210D
:100280000090084600F03CFB4FF4FC60AC234FF4B8
:10029000A07200210090084600F032FB1F20AC2322
:1002A0004FF4A07200210090084600F029FB4FF6A1
:1002B000FF70AC234FF4A07200210090084600F0BC
:1002C0001FFB002020214FF6FF724FF47843CDE949
:1002D0000021029037A20146282000F08BFE00206A
:1002E00020214FF6FF724FF47843CDE900210290B0
:1002F00033A221210A2000F067FF20204FF6FF7172
:100300004FF478420323CDE9002102904FF4A0720C
:1003100021216A2000F084FF002020214FF6FF7287
:100320004FF47843CDE90021029027A242210A2010
:1003300000F04AFF20204FF6FF714FF4784203236C
:10034000CDE900210290AC2242216A2000F068FF32
:1003500020204FF6FF714FF478430422B0EE480A94
:10036000CDE9001063210A2000F0A5FF18EE100A65
:1003700002F0E2FA41EC1A0B9FED150B53EC102B37
:1003800002F0F4F841EC190B02F0BEF808EE100A86
:10039000114828231A465F210090A02000F0EFFFAB
:1003A00040F6980001F080F85AE7000000000000D5
:1003B000A4824242D6D0BEB0D4B0B5E7D7D30000B5
:1003C0004C43445F573A00004C43445F483A0000B6
:1003D000295C8FC2F528BC3F2E2A0008704700BF59
:1003E000FEE700BFFEE700BFFEE700BFFEE7704785
:1003F00070477047704700000CB5002001900090D6
:100400007648006840F480307449086000BF734843
:10041000006800F4003000900198401C01900098A2
:1004200018B90198B0F5A04FF1D16C48006800F4FC
:10043000003010B10120009001E0002000900098F1
:10044000012846D165484030006840F0805063493B
:10045000403108606248006840F4404060490860EC
:100460005E48083000685D49083108600846006849
:1004700040F4004008600846006840F4A05008605E
:100480005848091F0860081F006840F08070091F65
:10049000086000BF5148006800F000700028F9D0E3
:1004A00040F20570504908604C480830006820F060
:1004B00003004A49083108600846006840F002001D
:1004C000086000BF45480830006800F00C000828AC
:1004D000F8D10CBD10B54548006840F470004349A0
:1004E00008603E48006840F001003C490860002078
:1004F0003A4908310860394800683D4908403749A1
:1005000008603C48091D0860081F006820F480202E
:10051000091F0860002031490C310860FFF76CFFAB
:100520004FF0006031498039086010BD70B500207F
:100530000022022300240221284D08352D6805F0F1
:100540000C0020B1042806D0082834D107E02A4D39
:100550002A4E356033E02A4D284E35602FE01F4D7E
:100560002D1D2D68C5F380541C4D2D1D2D6805F0E3
:100570003F0154B1224DB5FBF1F5184E361D3668DA
:10058000C6F3881605FB06F209E01B4DB5FBF1F535
:10059000124E361D3668C6F3881605FB06F20F4D5F
:1005A0002D1D2D68C5F301456D1C6B00B2FBF3F5E5
:1005B000124E356003E0104D104E356000BF00BF95
:1005C000064D08352D68C5F303150E4E705D0B4DB5
:1005D0002D68C540094E356070BD000000380240EE
:1005E0000070004008544007003C024088ED00E0E5
:1005F000FFFFF6FE103000240024F400000000206D
:1006000000127A00040000201CB50121202001F016
:10061000C5FB4FF4C060009001208DF8040000205D
:100620008DF8060003208DF8050001208DF80700E5
:100630006946044801F014F94FF4C061014801F023
:100640008BF91CBD001402401CB501215F2001F094
:10065000A5FB3F20009001208DF8040000208DF8BC
:10066000060003208DF8050001208DF8070069467B
:10067000A24801F0F5F83F21A04801F06DF91CBD3A
:1006800070B5044610219D4801F068F9002517E077
:1006900001219A4801F062F904F0800020B10221A2
:1006A000964801F059F903E00221944801F056F907
:1006B0000121924801F050F96006040E681CC5B291
:1006C000082DE5DB10218D4801F046F970BD10B50D
:1006D00004462046FFF7D4FF10BD10B50446201293
:1006E000FFF7CEFFE0B2FFF7CBFF10BD10B5044619
:1006F0000821824801F032F92046FFF7C1FF0821A6
:100700007E4801F029F910BD2DE9F04107460C465D
:1007100015461E462A20FFF7E9FF3846FFF7DDFFA2
:100720002846FFF7DAFF2B20FFF7E0FF04F1220154
:1007300088B2FFF7D2FF06F1220188B2FFF7CDFFA2
:100740002C20FFF7D3FFBDE8F08110B5FFF77CFF49
:1007500004216A4801F002F91E2000F0A5FE0421E0
:10076000664801F0F9F8642000F09EFE20216348FD
:1007700001F0F2F8642000F097FE1120FFF7B6FFB9
:100780003620FFF7B3FF7020FFF7A1FF3A20FFF7F5
:10079000ADFF0520FFF79BFFB220FFF7A7FF0C205E
:1007A000FFF795FF0C20FFF792FF0020FFF78FFF68
:1007B0003320FFF78CFF3320FFF789FFB720FFF7C7
:1007C00095FF3520FFF783FFBB20FFF78FFF352014
:1007D000FFF77DFFC020FFF789FF2C20FFF777FF91
:1007E000C220FFF783FF0120FFF771FFC320FFF74F
:1007F0007DFF1320FFF76BFFC420FFF777FF20205A
:10080000FFF765FFC620FFF771FF0F20FFF75FFFBF
:10081000D020FFF76BFFA420FFF759FFA120FFF7BF
:1008200056FFD620FFF762FFA120FFF750FFE02020
:10083000FFF75CFFF020FFF74AFF0020FFF747FFBC
:100840000420FFF744FF0420FFF741FF0420FFF7D7
:100850003EFF0520FFF73BFF2920FFF738FF33203D
:10086000FFF735FF3E20FFF732FF3820FFF72FFF5D
:100870001220FFF72CFF1220FFF729FF2820FFF797
:1008800026FF3020FFF723FFE120FFF72FFFF020A6
:10089000FFF71DFF0720FFF71AFF0A20FFF717FFDA
:1008A0000D20FFF714FF0B20FFF711FF0720FFF7C4
:1008B0000EFF2820FFF70BFF3320FFF708FF3E2035
:1008C000FFF705FF3620FFF702FF1420FFF7FFFEBA
:1008D0001420FFF7FCFE2920FFF7F9FE3220FFF776
:1008E000F6FE2120FFF702FF1120FFF7FFFE782020
:1008F00000F0DAFD2920FFF7F9FE10BD00000240EC
:100900002DE9F04706460F4614461D46DDF820A0A7
:10091000681E83B2601E82B239463046FFF7F4FE8D
:10092000B8460EE0B14606E05046FFF7D6FE09F1A4
:1009300001001FFA80F9A145F6DB08F101001FFA5A
:1009400080F8A845EEDBBDE8F08770B504460D469B
:1009500016462B46224629462046FFF7D5FE30464E
:10096000FFF7BBFE70BD2DE9FF4F85B081468A467B
:100970000020039083460798A0EB09050898A0EB98
:100980000A06CDF80890CDF804A0002D01DD01275E
:1009900005E00DB9002702E04FF0FF376D42002E51
:1009A00002DD4FF0010806E016B94FF0000802E042
:1009B0004FF0FF387642B54201DD2C4600E0344668
:1009C000002004901EE0019A91B2029A90B2129A0D
:1009D000FFF7BBFF039828440390B3440398A04259
:1009E00005DD0398001B0390029838440290A3454C
:1009F00004DDABEB040B0198404401900498401CCB
:100A000080B20490611C04988842DCDB09B0BDE828
:100A1000F08F2DE9F84305460E4617469846089C88
:100A200033463A46314628460094FFF79CFF43463A
:100A30002A46314628460094FFF795FF43463A463A
:100A4000414628460094FFF78EFF43463A4631461A
:100A500038460094FFF787FFBDE8F8832DE9F0479B
:100A600006460F46904699460025444641E07A1BCB
:100A700091B2321B90B24A46FFF767FF7A1B91B2E0
:100A8000321990B24A46FFF760FF3A1991B2721BD1
:100A900090B24A46FFF759FF3A1B91B2721B90B2CF
:100AA0004A46FFF752FF7A1991B2321990B24A467C
:100AB000FFF74BFF3A1B91B2721990B24A46FFF70B
:100AC00044FF3A1991B2721990B24A46FFF73DFFBE
:100AD0007A1991B2321B90B24A46FFF736FF6D1C6D
:100AE00005FB05F004FB040108FB08F0814200DD72
:100AF000641EA542BBDDBDE8F0872DE9FF5F064619
:100B0000894692469B460F9C002003900096204603
:100B1000E21704EB5272D2102146E31704EB537331
:100B2000DB10A4EBC3030BB1012300E000231A4444
:100B3000624392B2019205200290002571E005EB1C
:100B40008510FA4911F810009AF80010884265D112
:100B500005EB8510F54901EB400040789AF801104B
:100B600088425BD109EB0400401E83B23019401E5D
:100B700082B249463046FFF7C7FD00274BE04FF0F1
:100B8000000842E01098F8B905EB8510E74901EB41
:100B90004000801CC05D012101FA08F1084018B135
:100BA0005846FFF79AFD02E00E98FFF796FD03986E
:100BB000401CC0B20390039890FBF4F104FB1100B9
:100BC000F8B90020039023E005EB8510D74901EB2D
:100BD0004000801CC05D012101FA08F1084020B1ED
:100BE0005A4649463046FFF7B0FE701C86B2009860
:100BF000301AA04205D1009E09F101001FFA80F9C8
:100C000006E008F1010000F0FF08B8F1080FB9DBB9
:100C100000BF781CC7B201988742B0DB00BF681CD8
:100C200085B2029885428ADBBDE8FF9F2DE9FF5F10
:100C30000646894692469B460F9C002003900096EC
:100C40002046E21704EB5272D2102146E31704EB60
:100C50005373DB10A4EBC3030BB1012300E00023AB
:100C60001A44624392B2019205200290002579E075
:100C700005EB850000EB4510AD4911F810009AF81E
:100C8000001088426BD105EB850000EB4510A849A8
:100C900001EB400040789AF8011088425FD109EBDF
:100CA0000400401E83B23019401E82B249463046CD
:100CB000FFF72AFD00274FE04FF0000846E01098AC
:100CC00008BB05EB850000EB4510994901EB40009E
:100CD000801CC05D012101FA08F1084018B1584696
:100CE000FFF7FBFC02E00E98FFF7F7FC0398401CAF
:100CF000C0B20390039890FBF4F104FB110008BB11
:100D00000020039025E005EB850000EB45108849A5
:100D100001EB4000801CC05D012101FA08F1084090
:100D200020B15A4649463046FFF70FFE701C86B286
:100D30000098301AA04205D1009E09F101001FFA67
:100D400080F906E008F1010000F0FF08B8F1080F93
:100D5000B5DB00BF781CC7B201988742ACDB00BF8F
:100D6000681C85B20298854282DBBDE8FF9F2DE9B1
:100D7000FF5F0646894692469B460F9C00200390E3
:100D800000962046E21704EB5272D2102146E31778
:100D900004EB5373DB10A4EBC3030BB1012300E09E
:100DA00000231A44624392B201920520029000256A
:100DB00071E005EB05105F4911F810009AF800107A
:100DC000884265D105EB05105A4901EB4000407897
:100DD0009AF8011088425BD109EB0400401E83B2EF
:100DE0003019401E82B249463046FFF78DFC00277D
:100DF0004BE04FF0000842E01098F8B905EB051001
:100E00004C4901EB4000801CC05D012101FA08F152
:100E1000084018B15846FFF760FC02E00E98FFF753
:100E20005CFC0398401CC0B20390039890FBF4F163
:100E300004FB1100F8B90020039023E005EB051036
:100E40003C4901EB4000801CC05D012101FA08F122
:100E5000084020B15A4649463046FFF776FD701CDF
:100E600086B20098301AA04205D1009E09F1010017
:100E70001FFA80F906E008F1010000F0FF08B8F160
:100E8000080FB9DB00BF781CC7B201988742B0DBFE
:100E900000BF681C85B2029885428ADBBDE8FF9FCF
:100EA0002DE9FF5F0646894692469B460F9C00202F
:100EB000039000962046E21704EB5272D2102146AE
:100EC000E31704EB5373DB10A4EBC3030BB1012353
:100ED00000E000231A44624392B20192052002907E
:100EE000002581E005EB850000EBC500124911F8F3
:100EF00010009AF80010884273D105EB850000EBD2
:100F0000C5000D4901EB400040789AF80110884275
:100F100067D109EB0400401E83B23019401E82B233
:100F200049463046FFF7F0FB002757E0406D0008C8
:100F3000CE6B0008246B0008A26A00084FF000087E
:100F400046E0109808BB05EB850000EBC500FE49A4
:100F500001EB4000801CC05D012101FA08F108404E
:100F600018B15846FFF7B9FB02E00E98FFF7B5FB42
:100F70000398401CC0B20390039890FBF4F104FB6B
:100F8000110008BB0020039025E005EB850000EB75
:100F9000C500ED4901EB4000801CC05D012101FA54
:100FA00008F1084020B15A4649463046FFF7CDFCCB
:100FB000701C86B20098301AA04205D1009E09F13B
:100FC00001001FFA80F906E008F1010000F0FF08B7
:100FD000B8F1080FB5DB00BF781CC7B20198874293
:100FE000ACDB00BF681C85B202988542FFF67AAF81
:100FF000BDE8FF9F2DE9FE4F8046894617469A4679
:10100000DDE90D460C9D36E00C2C09D153463A46DD
:1010100049464046CDE901460095FFF741FF25E0EE
:10102000102C09D153463A4649464046CDE901467F
:101030000095FFF79CFE19E0182C09D153463A465B
:1010400049464046CDE901460095FFF7EFFD0DE02A
:10105000202C09D153463A4649464046CDE901463F
:101060000095FFF74AFD01E0BDE8FE8FBF1C08EBCD
:1010700004001FFA80F838780028C5D100BFF3E7D4
:101080002DE9FF5F80468A4617469B460F9D00204C
:101090000290CDF80080284605EBD071C1F34704DB
:1010A0002046E21704EB5272D2102146E31704EBFC
:1010B0005373DB10A4EBC3030BB1012300E0002347
:1010C0001A446A4392B20192A7F12000C7B20AEB18
:1010D0000500401E83B208EB0400401E82B2514658
:1010E0004046FFF711FB002669E00C2D07D107EB06
:1010F0004700964901EB8000805D03901BE0102DB6
:1011000005D1934800EB0710805D039013E0182D84
:1011100007D107EB47008F4901EB0010805D03907A
:1011200009E0202D05D18C4800EB8710805D0390ED
:1011300001E0BDE8FF9F4FF000093AE01098C8B900
:10114000012000FA09F00399084018B15846FFF74A
:10115000C4FA02E00E98FFF7C0FA0298401CC0B231
:101160000290029890FBF4F104FB1100E8B9002012
:10117000029021E0012000FA09F00399084020B113
:101180005A4651464046FFF7E0FB08F101001FFABE
:1011900080F80098A8EB0000A04206D1DDF800809E
:1011A0000AF101001FFA80FA06E009F1010000F0DF
:1011B000FF09B9F1080FC1DB00BF701C86B20198AE
:1011C000864292DB00BFB4E72DE9FE4F06460F468C
:1011D00014469846DDE90D5ADDF8309010E0CDE96F
:1011E000015ACDF800902278434639463046FFF741
:1011F00047FF284605EBD07106EB61018EB2641CF7
:1012000020780028EBD1BDE8FE8F10B50246012002
:1012100000E050430B1EA1F10104E1B2F9D110BD71
:101220002DE9FF4F85B0074691461D46DDE913A61F
:1012300000200490304606EBD071C1F3470B002428
:1012400034E0281B401EC1B20A20FFF7DEFFB9FBC5
:10125000F0F00A21B0FBF1F201FB12080498A0B9EA
:10126000681EA04211DDB8F1000F0CD1002004FB74
:101270000B71CDE900A6029088B22022129B06993C
:10128000FFF7FEFE10E001200490002008F130017D
:10129000CAB204FB0B71CDE900A6029088B2129B82
:1012A0000699FFF7EDFE00BF601CC4B2AC42C8DB7C
:1012B00009B0BDE8F08F2DE9FF4F2DED020B2DEDAC
:1012C000028B83B00746B0EE408A1446DDE91486EF
:1012D000304606EBD071C1F3470A9FED200A28EE95
:1012E000000ABCEEC00A10EE100A1FFA80FB0025AF
:1012F0003DE0601B401EC1B20A20FFF786FFBBFB2A
:10130000F0F00A21B0FBF1F201FB1209A01EA84285
:1013100010D10020A11E01FB0A71CDE900860290C8
:1013200088B22E220A9B0899FFF7AAFE681CC5B254
:10133000601CC4B2002009F13001CAB205FB0A7179
:10134000CDE9008602900BE0A26A0008AE360008E4
:10135000223B000812410008E25200080000C84287
:1013600088B20A9B0899FFF78BFE681CC5B2A5429C
:10137000BFDB03B0BDEC028B06B0BDE8F08F2DE9FA
:10138000F05F0746884615461E46DDF82890002483
:1013900008EB0600401E83B27819401E82B2414617
:1013A0003846FFF7B1F9A24618E04FF0000B0FE006
:1013B00019F81400FFF78BF9012101EB440119F82A
:1013C0000100FFF784F9641C0BF101001FFA80FB98
:1013D000B345EDDB0AF101001FFA80FAAA45E4DB10
:1013E000BDE8F09F10B504466FF0040000F094F9DA
:1013F000E11704EB5171C1F3C701394A117010466E
:10140000007800EB4001C1EBC0104FF6FF7101EA1C
:10141000C0003449088010BD0146314A12784A4361
:101420004FF0E0235A6100229A611A46126942F095
:1014300001021A6100BF4FF0E022106900F00102C2
:101440001AB100F48032002AF5D04FF0E022126980
:1014500022F001024FF0E0231A6100229A617047E6
:101460000146204A12884A434FF0E0235A61002285
:101470009A611A46126942F001021A6100BF4FF0E8
:10148000E022106900F001021AB100F48032002A53
:10149000F5D04FF0E022126922F001024FF0E02374
:1014A0001A6100229A61704770B504464FF40770C4
:1014B00094FBF0F0C6B24FF4077094FBF0F100FB20
:1014C000114085B205E04FF40770FFF7C9FF701EA9
:1014D000C6B2002EF7D115B12846FFF7C1FF70BD87
:1014E0001400002016000020014600BF704700BF16
:1014F0004C4A128802F04002002AF9D0C2B2494B8D
:101500009A80704710B588B004460121084600F063
:1015100045FC0121102000F09BFC072209214248D4
:1015200000F029FA07220A213F4800F024FA4FF47C
:10153000C060069002208DF81C008DF81D00002070
:101540008DF81E0001208DF81F0006A9364800F016
:1015500087F902940020ADF80C00ADF80E00ADF84C
:101560001000ADF814000C20ADF8120002A92D48AF
:1015700000F0CFFD01212B4800F053FE012240F284
:101580002551284800F003FF25208DF80400032092
:101590008DF805008DF8060001208DF8070001A8E0
:1015A00000F06DF808B010BD10B540F225511D488F
:1015B00000F028FF10B31B4800F062FEC4B21B48C5
:1015C000008800F40040C8B91848008800F4804042
:1015D00060B10A2C03D000201449088020E0134891
:1015E000008840F400401149088019E00D2C06D114
:1015F0000E48008840F480400C49088010E00B48F9
:101600000088C0F30D000A490C5408480088401CAB
:101610000649088008460088C72801DD00200880A8
:1016200010BD000000100140000002401C0000201E
:10163000300000200948804709480047FEE7FEE7E0
:10164000FEE7FEE7FEE7FEE7FEE7FEE7FEE7FEE772
:1016500004480549054A064B70470000D5040008B8
:101660008901000858010020580700205803002075
:101670005803002032490143324A1160704770B567
:10168000002100230F22C4781CB32E4C246804F4DC
:10169000E064C4F5E064C4F30721C1F10404E3B2DB
:1016A0000A4144789C40E1B28478144021430C07FD
:1016B000210E254C05786155047804F01F0501249E
:1016C000AC4005786D11AD0005F1E025C5F800418D
:1016D00009E0047804F01F050124AC401B4D067896
:1016E000761145F8264070BD194A0A400243154B51
:1016F0001B1F1A60704739B1124A121D126802434B
:10170000104B1B1D1A6006E00E4A121D1268824320
:101710000C4B1B1D1A607047042808D14FF0E021C4
:10172000096941F004014FF0E022116107E04FF038
:10173000E021096921F004014FF0E02211617047B6
:101740000000FA050CED00E000E400E080E100E0BC
:1017500080FFFF1F10B504469848844208D101213C
:10176000084600F086FB0021012000F082FB76E0B5
:101770009348844208D10121022000F07AFB002125
:10178000022000F076FB6AE08E48844208D10121F5
:10179000042000F06EFB0021042000F06AFB5EE0F4
:1017A0008948844208D10121082000F062FB002111
:1017B000082000F05EFB52E08448844208D10121F9
:1017C000102000F056FB0021102000F052FB46E0F4
:1017D0007F48844208D10121202000F04AFB0021EB
:1017E000202000F046FB3AE07A48844208D10121EB
:1017F000402000F03EFB0021402000F03AFB2EE0AC
:101800007548844208D10121802000F032FB00217C
:10181000802000F02EFB22E07048844208D1012194
:10182000801500F026FB0021A01500F022FB16E039
:101830006B48844208D10121401500F01AFB0021B9
:10184000601500F016FB0AE06648844207D10121CA
:10185000001500F00EFB0021201500F00AFB10BD62
:10186000F0B50A4600210023002400BF3DE0012519
:1018700005FA01F3156805EA03049C4234D10568B2
:101880004F000326BE40B543056015794E00B540B4
:101890000668354305601579012D02D01579022DB2
:1018A00016D185684F000326BE40B5438560557943
:1018B0004E00B540866835438560456801268E40F8
:1018C000B5434560456896798E40B6B2354345606C
:1018D000C5684F000326BE40B543C560D5794E00AC
:1018E000B540C6683543C560491C1029BFD3F0BD5B
:1018F0004FF6FF7101600021017141718171C17169
:10190000704708B54FF480320092009A0A43009263
:10191000009AC261C161009AC261C2690092C26943
:10192000009208BD0246002013690B400BB1012054
:1019300000E0002070470146086980B27047024607
:10194000002053690B400BB1012000E000207047DC
:101950000146486980B270470183704741837047F0
:101960000AB1018300E041837047416170474269D9
:101970004A4042617047F0B5002300244D07ED0E48
:1019800002FA05F3CE1000F1200555F826504E0757
:10199000F70E0F26BE40B543CF1000F1200646F8E3
:1019A0002750CE1000F1200555F8265045EA0304D3
:1019B000CE1000F1200545F82640F0BD00000240A1
:1019C0000004024000080240000C024000100240E7
:1019D0000014024000180240001C02400020024097
:1019E0000024024000280240F948006840F001004D
:1019F000F74908600020F64908310860F44800689B
:101A0000F4490840F2490860F348091D0860F348AA
:101A1000EF4984310860F0481038091D0860EC482F
:101A2000006820F48020EA4908600020E8490C3171
:101A30000860E7498C31086070470021E44A921C35
:101A4000117011460870704710B50146002200233E
:101A500000204A11012A02D1DD4C236808E0022A45
:101A600003D1DB4C7034236802E0D94C7434236812
:101A700001F01F02012494401C400CB1012000E041
:101A8000002010BD38B5002000900024002500BFC4
:101A90003120FFF7D9FF05460098401C00900098C0
:101AA000B0F5A04F01D0002DF2D03120FFF7CCFFD0
:101AB00008B1012400E00024204638BD0146002082
:101AC000C34A106820F0F80040EAC1001060704777
:101AD000C349086070470021BD4A7032117011700F
:101AE000012802D004280AD104E00121B84A70324A
:101AF000117005E00521B64A7032117000E000BF98
:101B000000BF7047B7490860704770B5049C41EA50
:101B100082150126C6EB530645EA0645054345EA0C
:101B20000465AB4E361D356070BDAD490866704723
:101B3000820142EA0172A64B84331A607047A849B9
:101B40008866704710B5830143EA016343EA027374
:101B50009F4C8834236010BDA14908677047A04995
:101B6000C864704702460020994B0833186820F07B
:101B7000EC6042EA01031843954B08331860704744
:101B800002460020924B0833186820F0784042EA61
:101B9000010318438E4B083318607047014600203C
:101BA0008B4A0832106820F0030008431060704729
:101BB00087480830006800F00C007047014600209C
:101BC000834A0832106820F0F00008431060704724
:101BD000014600207E4A0832106820F4E050084395
:101BE0001060704701460020794A0832106820F4DE
:101BF000604040EAC10010607047F0B5002100224B
:101C00000024022500260223714F08373F6807F0A1
:101C10000C0121B1042905D0082937D105E0724F04
:101C2000076036E0714F076033E0694F3F1D3F6842
:101C3000C7F38056664F3F1D3F6807F03F036EB104
:101C40006A4FB7FBF3F7DFF888C10CF1040CDCF83E
:101C500000C0CCF3881C07FB0CF40CE0624FB7FB10
:101C6000F3F7DFF86CC10CF1040CDCF800C0CCF326
:101C7000881C07FB0CF4564F3F1D3F68C7F3014714
:101C80007F1C7D00B4FBF5F7076002E0564F07604C
:101C900000BF00BF4E4F08373F6807F0F001090949
:101CA000534F7A5C0768D7404760494F08373F6811
:101CB00007F4E051890A4E4F7A5C4768D740876045
:101CC000434F08373F6807F46041490B484F7A5C3F
:101CD0004768D740C760F0BD002100F44072B2F5FC
:101CE000407F0AD13A4A0832116821F4F811414A7A
:101CF00002401143364A08321160354A7032126888
:101D0000C0F30B031A43324B70331A6070473549E6
:101D10004439086070473349403908607047364994
:101D20000860704701460020294A8C32106820F074
:101D30001F004A1E1043264A8C321060704701462D
:101D40000020234A8C32106820F4F8504A1E40EAE2
:101D500002201F4A8C3210607047014600201C4A46
:101D60008C32106820F44010084310607047014620
:101D70000020174A8C32106820F44000084310609D
:101D8000704701460020124A8C32106820F440301F
:101D900008431060704719490860704739B10C4A10
:101DA0003032126802430A4B30331A6006E0084AA8
:101DB000303212688243064B30331A607047F9B1F3
:101DC000034A343212680243014B34331A601CE078
:101DD00000380240FFFFF6EA1030002400300020F7
:101DE00000004742800E47420024F40000127A00AF
:101DF0001E000020FFFCFF0F5C014742E01147423C
:101E00008F4A126882438E4B1A60704739B18C4AF0
:101E1000121D126802438A4B1B1D1A6006E0884A95
:101E2000121D12688243864B1B1D1A60704739B120
:101E3000834A0C3212680243814B0C331A6006E06D
:101E40007F4A0C32126882437D4B0C331A60704714
:101E500039B17B4A103212680243794B10331A6051
:101E600006E0774A103212688243754B10331A60CD
:101E7000704739B1724A243A12680243704B243BCE
:101E80001A6006E06E4A243A126882436C4B243B87
:101E90001A60704739B16A4A203A12680243684BA7
:101EA000203B1A6006E0664A203A12688243644B7F
:101EB000203B1A60704739B1614A1C3A12680243EC
:101EC0005F4B1C3B1A6006E05D4A1C3A1268824375
:101ED0005B4B1C3B1A60704739B1594A143A12687F
:101EE0000243574B143B1A6006E0554A143A1268F5
:101EF0008243534B143B1A60704739B1504A103A31
:101F0000126802434E4B103B1A6006E04C4A103AEE
:101F1000126882434A4B103B1A60704739B1484AF5
:101F20001C3212680243464B1C331A6006E0444AD6
:101F30001C3212688243424B1C331A60704739B11D
:101F40003F4A2032126802433D4B20331A6006E0BC
:101F50003B4A203212688243394B20331A60704763
:101F600039B1374A243212680243354B24331A60A0
:101F700006E0334A243212688243314B24331A601C
:101F8000704739B12E4A2C32126802432C4B2C3345
:101F90001A6006E02A4A2C3212688243284B2C33FE
:101FA0001A60704739B1264A303212680243244B16
:101FB00030331A6006E0224A303212688243204BE6
:101FC00030331A607047012808D11D493C31096837
:101FD00041F008011A4A3C32116007E018493C31CF
:101FE000096821F00801164A3C321160704739B186
:101FF000134A273A12780243114B273B1A7006E026
:102000000F4A273A127882430D4B273B1A707047CC
:102010000B484030006840F080700949403108604A
:10202000704701460020064A283A12680A400AB161
:10203000012000E0002070470149263908707047F0
:102040003438024010B50446FA48844208D10121D0
:102050001020FFF752FF00211020FFF74EFF57E03E
:10206000F548844209D101214804FFF735FF0021DA
:102070004FF40030FFF730FF4AE0F048844209D1C6
:1020800001218804FFF728FF00214FF48020FFF78B
:1020900023FF3DE0EA48844209D10121C804FFF74B
:1020A0001BFF00214FF40020FFF716FF30E0E5484A
:1020B000844209D101210805FFF70EFF00214FF4EA
:1020C0008010FFF709FF23E0DF48844208D1012197
:1020D0002020FFF712FF00212020FFF70EFF17E05E
:1020E000DA48844209D101218807FFF7F5FE002173
:1020F0004FF08040FFF7F0FE0AE0D548844207D158
:1021000001214005FFF7E8FE00216005FFF7E4FE2E
:1021100010BD2DE9FF4705460E460024A14600BF2D
:10212000A046B08900B100BF2C8A24F44054F08846
:1021300004432C82AC8941F20C608443B08831891D
:102140000843718908430443AC81AC8A24F4407489
:10215000B0890443AC826846FFF74FFDB54885421D
:1021600002D0B948854202D1DDF80C9001E0DDF8DB
:102170000890A88900F4004040B109EBC90000EBC9
:10218000091031684900B0FBF1F707E009EBC9001D
:1021900000EB091031688900B0FBF1F76420B7FB50
:1021A000F0F004012009642101FB1078A88900F4F3
:1021B000004040B1322000EBC800B0FBF1F000F06D
:1021C0000700044308E0322000EB08106421B0FB54
:1021D000F1F000F00F0004432C81BDE8FF874FF4BD
:1021E0001651016000218180C18001810C21418153
:1021F00000218181704710B502460020108A20F42A
:1022000070600B884C8823438C882343CC882343FD
:102210001843108210BD0021018041808180C1805F
:10222000704721B1828942F40052828104E08289A0
:102230004DF6FF731A4082817047028B02F47F4291
:102240000283028B0A430283704721B1828942F4E0
:102250000042828103E08289C2F30E0282817047CC
:1022600021B1828A42F40062828204E0828A4FF2C3
:10227000FF731A4082827047C1F308028280704760
:1022800001468888C0F308007047028A4FF6F07351
:102290001A400282028A0A430282704721B182896F
:1022A00042F00202828104E082894FF6FD731A40F7
:1022B0008281704782894FF2FF731A40828182893E
:1022C0000A4382817047028A4FF6DF731A40028206
:1022D000028A0A430282704721B1028A42F4804294
:1022E000028204E0028A4BF6FF731A4002827047B2
:1022F000818941F001018181704721B1828A42F0D8
:102300000802828204E0828A4FF6F7731A408282C2
:102310007047028BD2B20283028B42EA012202830F
:10232000704721B1828A42F02002828204E0828AD0
:102330004FF6DF731A408282704721B1828A42F0E1
:102340001002828204E0828A4FF6EF731A40828282
:102350007047828A4FF6FB731A408282828A0A4350
:102360008282704721B1828A42F00202828204E0B6
:10237000828A4FF6FD731A40828270471AB1838AAF
:102380000B43838202E0838A8B4383827047F0B5DC
:102390000346002400260025002040F66A17B942B3
:1023A00000D100BF1846C1F3421401F01F060127F7
:1023B00007FA06F5012C01D10C3004E0022C01D102
:1023C000103000E014301AB107682F43076002E0B4
:1023D0000768AF430760F0BD02460020B1F5007FFB
:1023E00000D100BF13880B400BB1012000E000209A
:1023F000704701F40072B2F5007F00D100BFCA43FC
:102400000280704770B5024600240023002500209A
:1024100040F66A16B14200D100BFC1F3421501F087
:102420001F03012606FA03F3012D13D196893340C9
:1024300017E0000000100140004400400048004048
:10244000004C004000500040001401400078004063
:10245000007C0040022D02D1168A334001E0968AAA
:1024600033400C12012606FA04F41688344013B1E6
:102470000CB1012000E0002070BD10B50022002347
:1024800040F66A14A14200D100BF0A120124944010
:10249000A3B2DC43048010BD70477047704770479B
:1024A0007047754600F02CF8AE4605006946534665
:1024B00020F00700854618B020B5FFF7C9F8BDE841
:1024C00020404FF000064FF000074FF000084FF09B
:1024D000000B21F00701AC46ACE8C009ACE8C0092C
:1024E000ACE8C009ACE8C0098D46704710B5044699
:1024F000AFF300802046BDE81040FDF78EBE00001F
:1025000000487047F800002021F00042A2F160521C
:10251000B2F5801F01F0004328BFD2F17F6C0BD9C8
:102520005FEA001C43EAC20242EB507018BF7047DA
:1025300028BF20F001007047B2F5801FBCBF1846CD
:1025400070474FEA410C1CF5001F02D2084600F00C
:1025500069BA70B500F0B2F800000089FFF7F6BF65
:102560004FF00040A0F580007047000010B591EAE0
:10257000030F48BF83F0004300F1FC80841A71EB25
:10258000030C05D2121943EB0C03001B61EB0C0189
:10259000DFF824E14FEA1154A4EB135C1EEA430F69
:1025A00018BF9EEA445F73D023EA0E03DCF1200ECD
:1025B00021EA045143F4801332D322FA0CFE10EBCB
:1025C0000E0023FA0CFE41EB0E01CCF1200E03FAB3
:1025D0000EFE10EB0E0051F10001B1F5801FCCF1A1
:1025E000200E32D201EB045112FA0EF2BDE8104077
:1025F00058BF7047401C38BF5FEA420218BF70479F
:10260000002814BF20F0010041F100014FEA41030E
:1026100013F5001F38BF7047A1F1C04100F09CB80E
:10262000012A43EB0302ACF1200CDCF11F0E32BF98
:102630004FF0000E23FA0CF310EB030041EB0451B2
:10264000B4EB115FD0D0A1EB045101F58011490822
:102650005FEA300001EB04510ED350F1000038BFA7
:1026600012FA0EFE08D1BDE81040C9E7401C38BF81
:102670005FEA4202CAD1C3E7BDE810404FEA410316
:1026800013F5001F38BF7047A1F1C04100F064B8D6
:102690009EEA445F08D011EA5E0FBDE8104004BF17
:1026A00001F0004100207047BDE8104070B500F017
:1026B00005F800BF64FBBE3E0000E0FF0EF1020E15
:1026C0002EF0030E5EF8046B364205D4012A43EB6C
:1026D000030515F5001F12D8012841EB010C1CF56C
:1026E000001F0CD80ED14FEAD17C15F5001F0CEB62
:1026F0004C0C0CF1020C08BF4CEBD37C04E04FF007
:10270000080C01E04FEAD37C0CEB4C0526FA05F6E9
:1027100006F00706B6F1040C06D20EEB860CBDE8F7
:1027200070404CF0010C6047DFE80CF0090B02022E
:102730004FF000414FF00000A1F5002170BD194697
:102740001046012851EB010418BFD4F5001484BFD2
:10275000002001F0004170BD0808A0F500114FEA0B
:102760003101704710B591EA030F48BF83F0004371
:102770003FF504AF841A71EB030C07D212198CF0E9
:10278000004C43EB0C03001B61EB0C01DFF8A4E1F0
:102790004FEA1154A4EB135C1EEA430F18BF9EEAE4
:1027A000445F00F0B08023EA6E03524221EA0451F4
:1027B000C3EB6E0338BF5B1EDCF1200E25D322FA7B
:1027C0000CFE10EB0E0043FA0CFE41EB0E01CCF1B7
:1027D000200E03FA0EFE10EB0E0051F10001CCF1B9
:1027E000200E29D412FA0EF201EB0451BDE810407C
:1027F00058BF7047401C1CBFB2F1004F7047002803
:102800000CBF491C20F00100704712EB020E43EB95
:10281000030218BF4FF0010E4EEA4202ACF1200C49
:10282000DCF11E0E54D943FA0CFE10EB0E0051F1F0
:10283000FF31CCF11E0ED5D50EF1010E12FA0EFEAF
:10284000404141EB010101EB445C5FEA5C5C10D963
:1028500010EBDE7001EB045138BFBEF1004FBDE854
:10286000104018BF704700280CBF491C20F0010021
:10287000704730D24FEAD42C11F5001124F40064D3
:102880001BD0B1FA81F20B3AA41AA41ED2F1200394
:10289000914030FA03F31943904001EBCC71002CC6
:1028A00001EB0451BDE81040A8BF704701F1C041E1
:1028B0004FF0000001F000417047B0FA80F310FAC9
:1028C00003F100D110BDE41A173C4805C90AE4E73A
:1028D00001EB045110BD491001EB0451BDE810405B
:1028E0004FEA300002E04FF0000170474A0008BF95
:1028F0000042F8D0B2F5001F28BF704701F0004138
:102900004FF0000070479EEA445F07D011EA5E0F67
:10291000BDE8104004BF002100207047BDE8104012
:1029200070B5FFF7CBFE00BF40DFF63E83F00041FD
:10293000104670470000E0FF43004FEAD30C4FEA17
:102940003C0C43401FBF40070CF1605113F0FE4F99
:1029500070471CF0006F03D100200CF0004170475D
:102960000CF0004343EA507010B540EACC0000F090
:102970000EF800BF000000924FEA0001FFF7ECBE26
:102980004FF000414FF00000A1F5002170470EF11B
:10299000020E2EF0030E5EF8044B244204D44FEADC
:1029A0004102B2F17F4F11D84FEA4003B3F17F4F9C
:1029B0000CD80ED14FEAD07CB2F17F4F0CEB4C0C0F
:1029C0000CF1020C08BF4CEBD17C04E04FF0080C7A
:1029D00001E04FEAD17C0CEB4C0324FA03F404F041
:1029E0000704B4F1040C06D20EEB840CBDE81040D1
:1029F0004CF0010C6047DFE80CF0070802024FF0D2
:102A00000040A0F5800010BD0846420018BFD2F17A
:102A1000807288BF00F0004010BD4FF04070E1EEC2
:102A2000100A7047FF2141EAD050C0057047FFFFF0
:102A3000FFFFFFFFFFFFFFFFFFFFFFFFFFFFFFFFA6
:102A4000FFFFFFFFFFFFFFFFFFFFFFFFF7BEFFFFDF
:102A5000FFDEC6388C926B8E6B6E7C10AD96E73CB9
:102A6000FFFFFFFFFFFFFFFFFFFFFFFFFFFFFFFF76
:102A7000FFFFFFFFFFFFFFFFFFFFFFFFFFFFFFFF66
:102A8000FFFFFFFFFFFFFFFFFFFFFFFFFFFFFFFF56
:102A9000FFFFFFFFFFFFFFFFFFFFFFFFEF5D9D1544
:102AA000634F426C320A298819461925214531E8BD
:102AB0006B8EC638FFFFFFFFFFFFFFFFFFFFFFFF2B
:102AC000FFFFFFFFFFFFFFFFFFFFFFFFFFFFFFFF16
:102AD000FFFFFFFFFFFFFFFFFFFFFFFFFFFFFFFF06
:102AE000FFFFFFFFFFFFFFFFFFFFA53653104B1057
:102AF00053514B0F3A6C31E92167192510E408A3B3
:102B00000062088352CBD69AFFFFFFFFFFFFFFFF53
:102B1000FFFFFFFFFFFFFFFFFFFFFFFFFFFFFFFFC5
:102B2000FFFFFFFFFFFFFFFFFFFFFFFFFFFFFFFFB5
:102B3000FFFFFFFFFFFFE73C637063B37CB863F503
:102B40004311324D29EA2188192619051905110466
:102B5000110410E4008308A38C72FFFFFFFFFFFF46
:102B6000FFFFFFFFFFFFFFFFFFFFFFFFFFFFFFFF75
:102B7000FFFFFFFFFFFFFFFFFFFFFFFFFFFFFFFF65
:102B8000FFFFFFFFDEDB3A4B42F06C354B5432B1B6
:102B90002A2E21EB21A9196719051104110411042A
:102BA00011041104190510E4004273AFFFFFFFFF89
:102BB000FFFFFFFFFFFFFFFFFFFFFFFFFFFFFFFF25
:102BC000FFFFFFFFFFFFFFFFFFFFFFFFFFFFFFFF15
:102BD000FFFFEF5D3209324C4B10328F2A4F2A2E05
:102BE00019CC19892189194719051104110410C438
:102BF00010C411041104110410E400428431FFFFD9
:102C0000FFFFFFFFFFFFFFFFFFFFFFFFFFFFFFFFD4
:102C1000FFFFFFFFFFFFFFFFFFFFFFFFFFFFFFFFC4
:102C2000FFFF52EC1947324C2A0B21EC21EC220C0D
:102C30005B914AEE11061926190410E410E429A745
:102C4000216608A319051104110410E40082BDF7E0
:102C5000FFFFFFFFFFFFFFFFFFFFFFFFFFFFFFFF84
:102C6000FFFFFFFFFFFFFFFFFFFFFFFFFFFFFFFF74
:102C7000A535088321882188218921AA218A426BD0
:102C80008C71FFFF8C720883110408C44229DEFB9B
:102C9000EF5D5AEC0883110411041104088331E834
:102CA000FFDFFFFFFFFFFFFFFFFFFFFFFFFFFFFF54
:102CB000FFFFFFFFFFFFFFFFFFFFFFFFFFFFF7BE6D
:102CC00031C710C4192519261947194729A8528A4E
:102CD0004A28AD55FFFF31E808A319056B4D6B4D30
:102CE000FFFFEF7D214510C411041104110400629F
:102CF000AD76FFFFFFFFFFFFFFFFFFFFFFFFFFFFBF
:102D0000FFFFFFFFFFFFFFFFFFFFFFFFFFFFB59686
:102D10000062110419041105190508C44A8BB5B6DF
:102D2000EF5DBDF7FFFF6B8E006242295AAA420891
:102D3000FFFFFFFF52CC088311041104110408A304
:102D400052ADFFFFFFFFFFFFFFFFFFFFFFFFFFFF92
:102D5000FFFFFFFFE71CFFFFFFFFFFFFFFFF634ECB
:102D6000006211041104110410E40062638EFFFF7D
:102D7000FFFFFFFFFFFF73CF00019CF3632CB596AD
:102D8000FFFFFFFF5B2D008311041104110410E409
:102D90002167EF3DFFFFFFFFFFFFFFFFFFFFBDF8D4
:102DA000B5B7EF9E52CB94B3FFFFFFFFFFDF31E8D3
:102DB00008A3110411041104110408A34249F7FFE8
:102DC000F7FFFFFFFFFF4A6A00018472FFFFFFFF6A
:102DD000F7FFEFDF3A0908A31104110411041104ED
:102DE0001105BE18FFFFFFFFFFFFFFFFFFFF7BF096
:102DF000006231E831C70041A535FFFFEF5D214694
:102E000010C4110411041104110410E408A39D76E8
:102E1000F7FFFFFFADB708A308A331C7E79EF7FF91
:102E2000F7FFA57608A310E411041104110411059D
:102E30001105A535FFFFFFFFFFFFFFFFFFFFDEDBF3
:102E400029A7008310C410C410C4E71CEF9E11050D
:102E500010E41104110411041104190408C410E54C
:102E60006BD16BD108C5006408A50043322B9D7758
:102E700084B3192510C41104110411041104192577
:102E800009269D35FFFFFFFFFFFFFFFFFFFFFFFF4D
:102E900073AF00621904190500825B0D9B8E1062EE
:102EA000110511041104190410E40085110539C439
:102EB0005A817B409C22AC43A4039B83728249824B
:102EC00018C200A400C510E419041104190519471B
:102ED00011675AECFFBEFFFFFFFFFFFFFFFFFFDFA1
:102EE000DEDB10C410E41104110518A4C0018883AE
:102EF00000E41905190408C521448343D523FE4283
:102F0000FEE4FF27FF07FEA4FE64FE03FDA3FCE230
:102F1000EC42B383622410E508C41904192619A8E9
:102F200021879000BCD3FFFFFFFFFFFFFFFFFFDF04
:102F3000FFFF7C100042190511052883D001F844D9
:102F400048A300E408C55A44ED02FDE2FE02FE6615
:102F5000FF74FFB8FF73F6E7F6A6F645F5A4FCC3C9
:102F6000FC62FCC2FCC2CBE349C41106198801878C
:102F700090A4F8019AECFFFFFFFFFFFFFFFFFFFFA8
:102F8000FFFFF7BE31E8008309054082C001F82346
:102F9000F08548A300A45A44FD02CC23DCC2FE0401
:102FA000FE28F648F646F624F5E4FD64FCE3FC62F0
:102FB000FCC2E402DC02FCE27AA40148016778C4A6
:102FC000F824F802B084E77DFFFFFFFFFFFFFFFF5B
:102FD000FFFFFFFFDEDB192500A338C4E002D82283
:102FE000F844F8A678A400632143728339839B8256
:102FF000F521FD61FD22FCE2FCA2FC42FC42FC4208
:10300000AB22418392C352040126192598A4F844A7
:10301000F823F802D0A4EF9EFFFFFFFFFFFFFFFFA2
:10302000FFFFFFFFFFFFD69A298700A5B843F822CC
:10303000E023F865F8E8C9074883004200A300844C
:1030400029637AA2B362CBA2D362BB028A8239839C
:1030500000A400E500E508E560C4D864F844F8245D
:10306000F823F8028883C6DBFFFFFFFFFFFFFFFFA7
:10307000FFFFFFFFFFFFFFFFE73D5B503108E82345
:10308000F843F044F865F909F9ABD189890648A3FA
:103090001842000200420061008200620062008368
:1030A00020A350C488A5D885F865F844F844F823CF
:1030B000F823D003108229C7EF5DFFFFFFFFFFFF5A
:1030C000FFFFFFFFFFFFFFFFFFFFFFFF326C38A591
:1030D000D802F823F865F866F8A7F94AFA0CFA4D11
:1030E000EA4CD20BB9A9B168A947B127B907D107F2
:1030F000E8E7F8C7F8A7F865F865F844F823F80397
:10310000D00228A3090508C45AECFFFFFFFFFFFF08
:10311000FFFFFFFFFFFFFFFFFFFFDEFB190500C4FE
:1031200041A7C0E6F803F886F8A7F887F886F8C73D
:10313000F929F98AF9ABF9ABF98BF96AF929F90898
:10314000F8C7F8A6F886F865F864F823F002B10627
:10315000292500E410E4192519259D14FFFFFFFF20
:10316000FFFFFFFFFFFFFFFFFFFFAD96006208823A
:103170009535CEBAA28BD044F825F887F8A7F8C7C2
:10318000F8A7F887F886F886F886F887F8A7F8A7EA
:10319000F8A6F885F865F864F024B864930DB6BB1A
:1031A00063CF0883110410E421663A49EF5DFFFF05
:1031B000FFFFFFFFFFFFFFFFFFFF94D3004210E47C
:1031C000CEBBFFFFE7BEB576AACCC107E045F84508
:1031D000F846F866F886F886F886F886F865F845C1
:1031E000F865E865D044A84388019082D73CEFFF9A
:1031F00095550883110411041905194694B3FFFF6E
:10320000FFFFFFFFFFFFFFFFFFFF94B30041218699
:10321000DF5DFFFFFFFFFFFFE7DFC67AB4D3B34EEA
:10322000C22AD168E0E6E8A6E8A5E8A5D8E6C988FC
:10323000A906A822A802A000C800D800E5F7E7FF69
:10324000ADF810C410E4110410E411054A8BFFFF1F
:10325000FFFFFFFFFFFFFFFFFFFFA555004129A76D
:10326000DF5DF7FFFFFFFFFFFFFFFFFFFFFFEFFF48
:10327000DF7DCEDBCE59CDF8CDD7C5F7CE79BEFBFD
:10328000A2ABF003F845D042E843F000D472DFFF70
:10329000AE3910E410E4110410E411052987FFFF92
:1032A000FFFFFFFFFFFFFFFFFFFFCE59088321460F
:1032B000D71CF7FFFFFFFFFFFFFFFFFFFFFFFFFF31
:1032C000FFFFFFFFFFFFFFFFFFFFFFFFFFFFEFFF1E
:1032D000BA8BF804F845E062F044F800DB8EDFFFBB
:1032E000A5F810C410E410E4110410E41925FFFF40
:1032F000FFFFFFFFFFFFFFFFFFFFF7BE29870883E8
:10330000B639F7FFF7DFFFFFFFFFFFFFFFFFFFFF0C
:10331000FFFFFFFFFFFFFFFFFFFFFFFFFFFFE7BE16
:10332000BA4AF803F845F864F844F800E36ED7FFAA
:103330008CF40883110410E410E410E41905FFFF75
:10334000FFFFFFFFFFFFFFFFFFFFFFFF73EF000027
:103350008472EFFFEFBEFFDFFFFFFFFFFFFFFFFF06
:10336000FFFFFFFFFFFFFFFFFFFFFFFFFFFFE7DFA5
:10337000BA8BF803F845F845F823F800D4D3D7FF03
:103380005B4E00213A29A555088310C41925FFFF7B
:10339000FFFFFFFFFFFFFFFFFFFFFFFFDEFB08A3B5
:1033A00031E8DF9EE79EEFBFFFFFFFFFFFFFFFFF5C
:1033B000FFFFFFFFFFFFFFFFFFFFFFFFFFFFF7FF25
:1033C000BC51E002F803F003E043C2ECCF7EBEFC48
:1033D0002146002194D3FFFF845100002987FFFF7D
:1033E000FFFFFFFFFFFFFFFFFFFFFFFFFFFF845116
:1033F00000008CF4EFFFE79EEFBFFFDFFFFFFFFF52
:10340000FFFFFFFFFFFFFFFFFFFFFFFFFFFFFFFFCC
:10341000DF3DBD55BC52BC72B5B7C75DDFFF6BF079
:1034200000003A09F7BFFFFFFFFF9D14A555FFFFFE
:10343000FFFFFFFFFFFFFFFFFFFFFFFFFFFFFFFF9C
:103440004AAC08A4BEBBE7DFE77EEFBEF7DFFFDFD5
:10345000FFFFFFFFFFFFFFFFFFFFFFFFFFFFFFDF9C
:10346000F7DFEFFFDFDFD7BFD79EDFDFA5D8088309
:103470001126D6DBFFFFFFFFFFFFFFFFFFFFFFFF70
:10348000FFFFFFFFFFFFFFFFFFFFFFFFFFFFEE79E3
:10349000DC8B312121A9CF3DDFBFDF7EE79EEFBE70
:1034A000EFBFF7DFF7DFF7DFF7DFF7DFEFBFEFBEE5
:1034B000E79EDF7ED75ED75EDFDFB69A1926084229
:1034C000A3EDFFBFFFFFFFFFFFFFFFFFFFFFFFFFBA
:1034D000FFFFFFFFFFFFFFFFFFFFFFFFDD74DBC00C
:1034E000FE00EE4242022189B67BDFDFD77EDF7E1F
:1034F000DF7EE79EE79EE79EE79EE79EDF7EDF7E1C
:10350000D75DD75DDF9EE7FFA5F8110718E3C50279
:10351000FD60D3E6EEDBFFFFFFFFFFFFFFFFFFFFD6
:10352000FFFFFFFFFFFFFFFFFFFFF79EBA84FCC115
:10353000FE42FE82FEA2838121457474C75EDFDFF6
:10354000D77ED75ED75DD75ED75ED75DD75DD75EB6
:10355000DF9EE7FFC73D63F108845242E626FF295C
:10356000FE86F3E0C36AFFFFFFFFFFFFFFFFFFFFE1
:10357000FFFFFFFFFFFFFFFFFFFFDE18D2C1FDA22D
:10358000FE22FE42FE42FE62D4E26A414249745388
:10359000A63BC73ED7BFD7BFD7BFDFBFD7BFC73E4A
:1035A000A61A63F229A74182B422FE62FE83FEAA14
:1035B000FF0FFD67BA63EF3CFFFFFFFFFFFFFFFF59
:1035C000FFFFFFFFFFFFFFFFFFFFE69AD280FD2115
:1035D000FDC2F5E2F5C2F582FD82FD62DC619B2150
:1035E0006A846AE9632C63AF7411636E632C5A8931
:1035F00052047A81CBC2FCE2FD62FD82FDC2FDC2B3
:10360000FDE4FD24CA62E71CFFFFFFFFFFFFFFFF91
:10361000FFFFFFFFFFFFFFFFFFFFFFFFCCB1D281E6
:10362000F3C0FCC1FD02FD02FCE2FCC2FCC2FC8155
:10363000FB80C9C081A4AD35CE599C718121DA00CF
:10364000FBA1FC82FCA2FC82FCA2FD02FD22FCE2AA
:10365000FC00DA60CC90FFFFFFFFFFFFFFFFFFFFE2
:10366000FFFFFFFFFFFFFFFFFFFFFFFFFFFFDE5931
:10367000C40DCB06D2E4DB03DB03DAE3D2C3C2A47E
:10368000B309BCD2F79EFFFFFFFFFFFFE6FBB40EBE
:10369000BAA6D283E2E3EB02EB22E322DB03D2E41D
:1036A000C36AD5B6FFFFFFFFFFFFFFFFFFFF00006C
:1036B00000000000000000000000000004040404FA
:1036C00004000004000014140A00000000000000C0
:1036D000000000000A0A1F0A0A1F0A0A000000046C
:1036E0000E1505060C14150E0400000012150D151C
:1036F0002E2C2A1200000000040A0A36151529167D
:10370000000002020100000000000000000010089C
:10371000080404040404080810000204040808084B
:1037200008080404020000000004150E0E15040031
:10373000000000000008083E08080000000000002B
:103740000000000000000202010000000000003F35
:103750000000000000000000000000000000000267
:1037600000000020101008080404020201000000FC
:103770000E1111111111110E0000000004060404B5
:103780000404040E000000000E1111080402011FC1
:10379000000000000E11100C1010110E00000000AF
:1037A000080C0C0A091F081C000000001F01010F73
:1037B0001110110E000000000C12010D1311110E5A
:1037C000000000001E1008080404040400000000AB
:1037D0000E11110E1111110E000000000E11111921
:1037E000161009060000000000000400000000049C
:1037F00000000000000000040000000404000000BD
:1038000010080402020408100000000000003F003D
:103810003F0000000000000002040810100804022D
:10382000000000000E111108040400040000000054
:103830001C22292D2D1D221C0000000004040C0A4E
:103840000A1E1233000000000F12120E1212120F85
:10385000000000001E1101010101110E0000000016
:103860000F1212121212120F000000001F120A0E85
:103870000A02121F000000001F120A0E0A020207AD
:10388000000000001C1201013911120C00000000A0
:103890003312121E12121233000000001F0404041F
:1038A0000404041F000000003E0808080808080877
:1038B0000907000037120A060A121237000000003A
:1038C000070202020202223F000000003B1B1B1BFA
:1038D00015151535000000003B1216161A1A12179E
:1038E000000000000E1111111111110E0000000056
:1038F0000F12120E02020207000000000E11111139
:103900001117190E180000000F12120E0A121237AA
:10391000000000001E1101060810110F0000000039
:103920001F1504040404040E0000000033121212D8
:103930001212120C000000003312120A0A0C0404C6
:1039400000000000151515150E0A0A0A00000000F7
:103950001B0A0A04040A0A1B000000001B0A0A0AC8
:103960000404040E000000001F0908040402121FD2
:1039700000001C0404040404040404041C000002E9
:10398000020404040808081010000E0808080808BB
:10399000080808080E00040A0000000000000000EB
:1039A000000000000000000000000000003F0204D2
:1039B0000000000000000000000000000000000CFB
:1039C000121C123C000000030202020E1212120E20
:1039D000000000000000001C1202120C0000001881
:1039E0001010101C1212123C000000000000000C0D
:1039F000121E021C000000182404041E0404041EED
:103A0000000000000000003C120C021C221C0003FD
:103A10000202020E12121237000000040400000617
:103A20000404040E000000080800000C0808080840
:103A3000080700030202021A0A060A130000000720
:103A4000040404040404041F000000000000000F2C
:103A500015151515000000000000000F1212123796
:103A6000000000000000000C1212120C0000000008
:103A70000000000F1212120E020700000000001CCE
:103A80001212121C103800000000001B0602020770
:103A9000000000000000001E020C101E00000000CC
:103AA0000004041E0404041C000000000000001BAD
:103AB0001212123C000000000000001B0A0A04045D
:103AC0000000000000000015150E0A0A00000000AA
:103AD0000000001B0A040A1B000000000000003365
:103AE00012120C08040300000000001E0804041E4B
:103AF000000018080808080C08080808180008083A
:103B00000808080808080808080806040404040847
:103B10000404040406001609000000000000000070
:103B20000000000000000000000000000000000095
:103B3000000000000008080808080808000018181D
:103B4000000000486C24120000000000000000008B
:103B500000000000002424247F1212127F1212128F
:103B600000000000081C2A2A0A0C1828282A2A1CEF
:103B7000080800000022251515152A58545454220F
:103B800000000000000C1212120A76252911916E15
:103B90000000000606040300000000000000000012
:103BA0000000004020101008080808080810102025
:103BB000400000020408081010101010100808043B
:103BC00002000000000008086B1C1C6B08080000C5
:103BD000000000000000080808087F080808080026
:103BE00000000000000000000000000000000606C9
:103BF00004030000000000000000FE0000000000C0
:103C000000000000000000000000000000000606A8
:103C1000000000008040402020101008080404022A
:103C2000020000000018244242424242424224184C
:103C30000000000000080E08080808080808083EF0
:103C400000000000003C4242422020100804427E56
:103C500000000000003C4242201820404042221C4C
:103C60000000000000203028242422227E2020781A
:103C700000000000007E0202021A26404042221C80
:103C80000000000000382402021A26424242241892
:103C900000000000007E2222101008080808080812
:103CA00000000000003C4242422418244242423CB0
:103CB0000000000000182442424264584040241C86
:103CC0000000000000000000181800000000181894
:103CD00000000000000000000008000000000008D4
:103CE00008040000004020100804020408102040CE
:103CF00000000000000000007F0000007F000000C6
:103D000000000000000204081020402010080402F7
:103D100000000000003C42424640201010001818ED
:103D200000000000001C225A555555552D42221CFA
:103D300000000000000808181414243C224242E746
:103D400000000000001F2222221E22424242221FA7
:103D500000000000007C4242010101010142221CDE
:103D600000000000001F2242424242424242221F03
:103D700000000000003F4212121E12120242423F97
:103D800000000000003F4212121E1212020202073F
:103D900000000000003C2222010101712122221CAE
:103DA0000000000000E7424242427E42424242E7B7
:103DB00000000000003E0808080808080808083E3F
:103DC00000000000007C10101010101010101010D7
:103DD000110F0000007722120A0E0A121222227717
:103DE0000000000000070202020202020202427FFB
:103DF000000000000077363636362A2A2A2A2A6B37
:103E00000000000000E346464A4A525252626247AE
:103E100000000000001C2241414141414141221C5F
:103E200000000000003F424242423E0202020207FE
:103E300000000000001C2241414141414D53321C11
:103E400060000000003F4242423E1212222242C75E
:103E500000000000007C4242020418204042423E22
:103E600000000000007F4908080808080808081C2E
:103E70000000000000E74242424242424242423CCD
:103E80000000000000E7424222242414141808080D
:103E900000000000006B494949495555362222224D
:103EA0000000000000E7422424181818242442E7E8
:103EB0000000000000772222141408080808081CDB
:103EC00000000000007E2120101008040442423F40
:103ED000000000780808080808080808080808080A
:103EE00078000000020204040808081010202020B6
:103EF0004040001E10101010101010101010101064
:103F00001E00003844000000000000000000000017
:103F100000000000000000000000000000000000A1
:103F200000FF000608000000000000000000000084
:103F30000000000000000000003C4278444242FCC7
:103F40000000000000030202021A26424242261A22
:103F50000000000000000000003844020202443863
:103F6000000000000060404040784442424264D873
:103F70000000000000000000003C427E0202423CC3
:103F80000000000000F08808087E08080808083EC5
:103F90000000000000000000007C22221C023C42C5
:103FA000423C000000030202023A4642424242E71B
:103FB00000000000000C0C00000E08080808083E75
:103FC0000000000000303000003820202020202099
:103FD000221E0000000302020272120A1612227749
:103FE00000000000000E0808080808080808083E3D
:103FF0000000000000000000007F9292929292B7B1
:104000000000000000000000003B4642424242E740
:104010000000000000000000003C42424242423CDE
:104020000000000000000000001B26424242221E49
:104030000207000000000000007844424242447839
:1040400040E000000000000000774C040404041F5E
:104050000000000000000000007C42023C40423EA4
:104060000000000000000008083E080808080830AA
:10407000000000000000000000634242424262DC97
:10408000000000000000000000E74224241408089B
:10409000000000000000000000EB494955552222B5
:1040A0000000000000000000007624181818246E9C
:1040B000000000000000000000E74224241418085B
:1040C0000807000000000000007E22100808447E5F
:1040D000000000C0202020202010202020202020B0
:1040E000C000101010101010101010101010101030
:1040F0001010000608080808081008080808080832
:1041000006000C32C20000000000000000000000A9
:10411000000000000000000000000000000000009F
:10412000000000000000000000000000000000008F
:10413000000000000000000000000000000000007F
:10414000000000000000000000006000600060004F
:10415000600060006000600040002000200020003F
:10416000000000000000600060006000000000002F
:10417000000000000000600660063003980188001F
:1041800044000000000000000000000000000000EB
:10419000000000000000000000000000000000001F
:1041A00000000000000000000000100210021002D9
:1041B0001002FE07FE0708020801080108010801B5
:1041C000FE07FE07040104010401040100000000D1
:1041D000000000000000000040004000F001580313
:1041E0004C03CC034C0058007000E000C001C0013B
:1041F00040034C035C034C034801F00040004000C6
:10420000000000000000000000000E010A01910003
:1042100091009100510051003A00AE03A0025004F9
:104220005004480448044804840284030000000049
:104230000000000000000000000038006C006C006E
:104240006C006C006C002C0098071C011A013301F3
:1042500033016301E300C308C6093C070000000006
:104260000000000000000C001C00100010000800FE
:10427000040000000000000000000000000000003A
:10428000000000000000000000000000000000002E
:104290000000000000000004000200018000800017
:1042A00040004000200020002000200020002000CE
:1042B0002000400040008000800000010002000457
:1042C00000000000000002000400080010001000C0
:1042D000200020004000400040004000400040001E
:1042E0004000200020001000100008000400020020
:1042F000000000000000000000000000000040007E
:10430000C0004000460C4E0FD001F0015E0F460C7D
:1043100040004000400000000000000000000000DD
:10432000000000000000000000000000000000008D
:1043300040004000400040004000FE0F40004000B0
:1043400040004000400000000000000000000000AD
:10435000000000000000000000000000000000005D
:10436000000000000000000000000000000000004D
:104370000000000000000C001C00100010000800ED
:104380000400000000000000000000000000000029
:1043900000000000000000000000FE070000000018
:1043A000000000000000000000000000000000000D
:1043B00000000000000000000000000000000000FD
:1043C00000000000000000000000000000000000ED
:1043D0000000000000001C001C001C000000000089
:1043E00000000000000000040006000200030001BD
:1043F000000180008000400040006000200020009C
:1044000010001000080008000C0004000600020064
:10441000000000000000000000000000F000980113
:104420000C030C0306060606060606060606060626
:10443000060606060C030C039801F00000000000BD
:1044400000000000000000000000000040007C00B0
:10445000600060006000600060006000600060005C
:1044600060006000600060006000FC03000000006D
:10447000000000000000000000000000F8008401BF
:10448000020306030603000300018001C000600070
:1044900020001000080204020602FE0300000000D3
:1044A0000000000000000000000000007800C600CE
:1044B0008601860180018001C0007000800100013A
:1044C00000030003060306038601F8000000000055
:1044D00000000000000000000000000080018001DA
:1044E000C001A001A001900188018801840182011E
:1044F000FE0F8001800180018001E00700000000C4
:10450000000000000000000000000000FC030400A8
:104510000400040004000400F4008C010403000300
:1045200000030603060382018401F8000000000076
:10453000000000000000000000000000E00118037F
:104540000C030C0004000600E60116030E06060626
:104550000606060604060C021803F0000000000020
:10456000000000000000000000000000F8070C063A
:1045700004020401000100018000800040004000AE
:10458000400060006000600060006000000000000B
:10459000000000000000000000000000F8010C0313
:1045A0000606060606060C021C03F000C8010C03F2
:1045B00006060606060606060C03F00100000000CB
:1045C000000000000000000000000000F0000C01EE
:1045D0000C03060206060606060606078C06780683
:1045E0000006000300030C018C01780000000000AD
:1045F00000000000000000000000000000000000BB
:10460000000000000000E000E000E000000000000A
:10461000000000000000E000E000E00000000000FA
:10462000000000000000000000000000000000008A
:1046300000000000000060006000000000000000BA
:10464000000000000000000060006000400020004A
:104650002000000000000000000000040002000133
:104660008000400020001000080004000800100036
:104670002000400080000001000200040000000053
:10468000000000000000000000000000000000002A
:10469000000000000000FE07000000000000FE0710
:1046A000000000000000000000000000000000000A
:1046B00000000000000000000000040008001000DE
:1046C0002000400080000001000200040002000100
:1046D00080004000200010000800040000000000DE
:1046E000000000000000000000000000E0031806C9
:1046F000040C040C0C0C0C0C000780014000400062
:10470000400000000000E000E000E00000000000C9
:1047100000000000000000000000E00018030C0290
:10472000CC0564056605A605B604B604B604B60451
:10473000B602E4010C040C021803F00000000000B3
:1047400000000000000000000000000060006000A9
:104750005000D00090009000880088010801F80106
:10476000040304030402020202060F0F000000000B
:10477000000000000000000000000000FE008C03AC
:104780000C030C030C030C038C01FC000C030C0247
:104790000C060C060C060C060C03FE0100000000C3
:1047A000000000000000000000000000E00318030B
:1047B0000C060C04040406000600060006000600B1
:1047C000060006040C040C021803F00000000000B0
:1047D0000000000000000000000000007F008C01CD
:1047E0000C030C030C060C060C060C060C060C063F
:1047F0000C060C060C030C038C017F00000000006B
:10480000000000000000000000000000FF0306039D
:1048100006040604060086008600FE008600860068
:1048200086000600060406040602FF0300000000DE
:10483000000000000000000000000000FF0306036D
:1048400006040604060086008600FE008600860038
:10485000860006000600060006001F00000000009B
:10486000000000000000000000000000F00018013F
:104870000C020C0204020600060006000600C60F29
:10488000060306030C030C031803F00000000000ED
:104890000000000000000000000000000F0F0606EE
:1048A00006060606060606060606FE0706060606AF
:1048B000060606060606060606060F0F000000009E
:1048C000000000000000000000000000FC03600089
:1048D00060006000600060006000600060006000D8
:1048E00060006000600060006000FC0300000000E9
:1048F000000000000000000000000000F807C000F9
:10490000C000C000C000C000C000C000C000C000A7
:10491000C000C000C000C000C000C000C6006600EB
:104920003C0000000000000000000000CF038601F2
:10493000C60046002600160036002E006E00460017
:10494000C60086008601060106038F0700000000EE
:104950000000000000000000000000001F00060032
:104960000600060006000600060006000600060017
:1049700006000600060406040602FF03000000000D
:104980000000000000000000000000000707860390
:1049900086038E038E034E034E034A035A035A03C3
:1049A0003A03320332033203120387070000000088
:1049B0000000000000000000000000008E0F0C024C
:1049C0001C021C0234023402640264024402C40267
:1049D000840284038403040304031F020000000014
:1049E000000000000000000000000000F00098013E
:1049F0000C030C0206060606060606060606060652
:104A0000060606060C020C039801F00000000000E8
:104A1000000000000000000000000000FF0006038E
:104A2000060606060606060606068603FE000600BD
:104A3000060006000600060006001F000000000039
:104A4000000000000000000000000000F0009801DD
:104A50000C030C02060606060606060606060606F1
:104A6000060676064C02CC039801F000800700038E
:104A7000000000000000000000000000FF0106032D
:104A800006060606060606060603FE004600C600E3
:104A9000860086010603060306060F0E00000000CE
:104AA000000000000000000000000000F8020C03FD
:104AB0000602060206000E003C00F800E003800338
:104AC00000070206020606060C03F00100000000C3
:104AD000000000000000000000000000FE0762046B
:104AE00061086108600060006000600060006000B4
:104AF00060006000600060006000F80100000000DD
:104B00000000000000000000000000001E070C0272
:104B10000C020C020C020C020C020C020C020C0225
:104B20000C020C020C020C021801F0000000000044
:104B30000000000000000000000000000F07060257
:104B4000040104010C010C01880088009800980001
:104B500050005000700030002000200000000000D5
:104B6000000000000000000000000000F70E6204DA
:104B700042044604460464026402E402E4029C0225
:104B80009C019801980188018800880000000000BD
:104B90000000000000000000000000009E070C0163
:104BA000080118019000B000600020006000600063
:104BB000D00090008801080104038E070000000067
:104BC0000000000000000000000000000F0F0604BD
:104BD00004020C0208011801B800B0007000600067
:104BE00060006000600060006000F80100000000EC
:104BF000000000000000000000000000FC070C02A4
:104C000006030201800180004000400020002000D7
:104C10001000180008040C040402FE030000000049
:104C2000000000000000E003200020002000200021
:104C30002000200020002000200020002000200074
:104C40002000200020002000200020002000E003A1
:104C50000000000000000000000004000400080044
:104C6000080010001000100020002000400040004C
:104C7000C00080008000000100010002000200026C
:104C80000004000000007C004000400040004000A4
:104C90004000400040004000400040004000400014
:104CA00040004000400040004000400040007C00C8
:104CB00000000000600090000801000000000000FB
:104CC00000000000000000000000000000000000E4
:104CD00000000000000000000000000000000000D4
:104CE00000000000000000000000000000000000C4
:104CF00000000000000000000000000000000000B4
:104D000000000000000000000000000000000000A3
:104D1000FF0F00000000180060000000000000000D
:104D20000000000000000000000000000000000083
:104D30000000000000000000000000000000000073
:104D40000000000000000000000000000000000063
:104D5000000000000000F0010C030C030003E0035E
:104D60001C030E03060306038E0B7C0E00000000DE
:104D70000000000000000000000008000E000C0011
:104D80000C000C000C00CC013C031C060C060C06AD
:104D90000C060C060C060C021C03E40100000000CB
:104DA0000000000000000000000000000000000003
:104DB000000000000000F0008C018C01860106005C
:104DC0000600060006020C020C01F00000000000C4
:104DD000000000000000000000000002C00300030B
:104DE00000030003000378038C030C03060306038F
:104DF00006030603060304038C0778010000000085
:104E000000000000000000000000000000000000A2
:104E1000000000000000E001180308020C060C0668
:104E2000FC070C000C0018041802E0010000000050
:104E3000000000000000000000000000C003600649
:104E4000300630003000FE0130003000300030000D
:104E500030003000300030003000FC010000000065
:104E60000000000000000000000000000000000042
:104E7000000000000000F007D8068C018C018C01B6
:104E80009801F8000C00FC00CC03060306038E0317
:104E9000F800000000000000000008000E000C00F8
:104EA0000C000C000C00EC011C030C030C030C03A5
:104EB0000C030C030C030C030C039E070000000002
:104EC0000000000000000000000000006000600022
:104ED0000000000040007C00600060006000600096
:104EE00060006000600060006000FC0300000000E3
:104EF000000000000000000000000000C001C00130
:104F0000000000000001F0018001800180018001AB
:104F10008001800180018001800180018001CC003E
:104F20007C00000000000000000008000E000C00E3
:104F30000C000C000C008C038C008C004C006C00EE
:104F40005C008C008C010C010C039E07000000002B
:104F50000000000000000000000040007C00600035
:104F60006000600060006000600060006000600041
:104F700060006000600060006000FC030000000052
:104F80000000000000000000000000000000000021
:104F90000000000000003707EE066606660666069B
:104FA00066066606660666066606FF0F00000000D7
:104FB00000000000000000000000000000000000F1
:104FC000000000000000EE011C030C030C030C03A6
:104FD0000C030C030C030C030C039E0700000000E1
:104FE00000000000000000000000000000000000C1
:104FF000000000000000F00098010C030606060601
:105000000606060606060C030C03F000000000006E
:105010000000000000000000000000000000000090
:10502000000000000000EE011C030C060C060C063C
:105030000C060C060C060C031C03EC010C000C0007
:105040003E00000000000000000000000000000022
:1050500000000000000078028C030C030603060326
:1050600006030603060304038C037803000300030E
:10507000C007000000000000000000000000000069
:105080000000000000009F035806380618001800B2
:1050900018001800180018001800FF000000000099
:1050A0000000000000000000000000000000000000
:1050B000000000000000F0031C030C020C0238008A
:1050C000F000C003040304038C03FC010000000093
:1050D00000000000000000000000000000002000B0
:1050E000200030003000FE01300030003000300081
:1050F00030003000300030023002E00100000000DB
:10510000000000000000000000000000000000009F
:105110000000000008028E030C030C030C030C03B8
:105120000C030C030C030C039C0778010000000027
:10513000000000000000000000000000000000006F
:105140000000000000001E070C0208010801180101
:105150009000B000B000600060002000000000007F
:10516000000000000000000000000000000000003F
:10517000000000000000F70E6204460464026402AE
:10518000EC029C01980198019801080000000000C1
:10519000000000000000000000000000000000000F
:1051A000000000000000BC0718011001B000600002
:1051B0006000E0009000080108039E070000000066
:1051C00000000000000000000000000000000000DF
:1051D0000000000000009E0708010801080190007F
:1051E0009000B000600060006000200020002400FB
:1051F0001C00000000000000000000000000000093
:10520000000000000000FC018401C40044006000B4
:1052100020003000180208020C03FC01000000000E
:10522000000000000000000380008000800080007B
:10523000800080008000800040002000400080004E
:1052400080008000800080008000800080000003DB
:10525000000040004000400040004000400040008E
:10526000400040004000400040004000400040003E
:10527000400040004000400040004000400040002E
:105280004000000000000C00100010001000100092
:10529000100010001000100020004000200010003E
:1052A00010001000100010001000100010000C0082
:1052B000000000001C002204C20480030000000063
:1052C00000000000000000000000000000000000DE
:1052D00000000000000000000000000000000000CE
:1052E00000000000000000000000000000000000BE
:1052F00000000000000000000000000000000000AE
:10530000000000000000000000000000000000009D
:10531000000000000000000000000000000000008D
:10532000000000000000000000000000C001C001FB
:10533000C001C001C001C001C00180008000800028
:10534000800080008000800000000000000000005D
:105350008001C003C00380010000000000000000C5
:105360000000000000000000E01CE01CF01E700EB9
:105370003807180308018400000000000000000046
:10538000000000000000000000000000000000001D
:10539000000000000000000000000000000000000D
:1053A00000000000000000000000000000002010CD
:1053B0002010201020102010FE7FFE7F1008100803
:1053C00010081008100810081008FE7FFE7F08045F
:1053D000080408040804080400000000000000009D
:1053E0000000000000000000000000010001C007F4
:1053F0006019103118311839183938017001E0017D
:10540000C0038007000F001D003900311C311C3122
:105410000C310C11180DE007000100010001000023
:1054200000000000000000000000000000001C1050
:1054300036186308630C6304630463026302630148
:10544000361D9C3780228063406340632063206365
:10545000306310221836081C000000000000000015
:105460000000000000000000000000000000F0004C
:1054700098018C018C018C018C018C00CC0078008F
:10548000183E1C083608320863046304C304C303CF
:10549000834306438E26781C0000000000000000B5
:1054A00000000000000000001C003C003C00300038
:1054B000300010000C00060000000000000000009A
:1054C00000000000000000000000000000000000DC
:1054D00000000000000000000000000000000000CC
:1054E0000000000000000000004000200010000844
:1054F000000C00040006000300030003800180018B
:10550000800180018001800180018001000300038F
:10551000000300060006000C0008001000200040F8
:10552000000000000000000002000400080010005D
:10553000300020006000C000C000C0008001800179
:10554000800180018001800180018001C000C000D5
:10555000C00060006000300010000800040002007D
:10556000000000000000000000000000000000003B
:10557000000000018003800300011C713C79783D2C
:10558000C0070001C007783D3C791C710001800311
:105590008003800100000000000000000000000007
:1055A00000000000000000000000000000000000FB
:1055B00000000000000100010001000100010001E5
:1055C0000001FC7F00010001000100010001000159
:1055D00000010000000000000000000000000000CA
:1055E00000000000000000000000000000000000BB
:1055F00000000000000000000000000000000000AB
:10560000000000000000000000000000000000009A
:1056100000001C003C003C003000300010000C007A
:105620000600000000000000000000000000000074
:10563000000000000000000000000000000000006A
:105640000000FE7F000000000000000000000000DD
:10565000000000000000000000000000000000004A
:10566000000000000000000000000000000000003A
:10567000000000000000000000000000000000002A
:10568000000000000000000000000000000000001A
:1056900018003C003C001800000000000000000062
:1056A000000000000000000000400060002000300A
:1056B000001000180008000C00040006000200039F
:1056C000000180018000C000400060002000300028
:1056D0001000180008000C00040006000200000082
:1056E0000000000000000000000000000000C007F3
:1056F000600C30181830183018200C600C600C60EA
:105700000C600C600C600C600C600C601820183091
:1057100018303018600CC0070000000000000000C6
:105720000000000000000000000000000000000178
:105730008001F801800180018001800180018001E9
:105740008001800180018001800180018001800151
:1057500080018001C003F81F00000000000000006D
:105760000000000000000000000000000000E00752
:10577000101C0818043004300C300C3000300018B5
:1057800000080004000200018000400020201020DA
:1057900008200430FC1FFC1F000000000000000077
:1057A0000000000000000000000000000000E00316
:1057B000180E0C0C0C180C180C180018000C000615
:1057C000C003000E00180010003000300C300C3008
:1057D0000C100C18180CE003000000000000000082
:1057E0000000000000000000000000000000000CAD
:1057F000000E000E000F800E800E400E600E200E78
:10580000100E100E080E040E040EFE7F000E000E89
:10581000000E000E000E000EC07F00000000000011
:105820000000000000000000000000000000F03F49
:10583000F03F10001000100008000800C807280CF6
:105840001818081000300030003000300C300C30D8
:1058500004180418080CF003000000000000000009
:105860000000000000000000000000000000800FA9
:10587000C010203010301800180008000C008C0FE9
:105880006C183C301C600C600C600C600C60186084
:10589000182030306018C007000000000000000031
:1058A0000000000000000000000000000000F83FC1
:1058B000F83F1C100C080408040400040002000255
:1058C000000100010001800080008000C000C000D5
:1058D000C000C000C000C0000000000000000000C8
:1058E0000000000000000000000000000000E007D1
:1058F000300C18180C300C300C301C303818700874
:10590000E007B007180E0C1C0638063006300630CB
:1059100006300C18180CE003000000000000000026
:105920000000000000000000000000000000E00394
:1059300018040C080C180610063006300630063025
:1059400006380C3C1836F0310030001800180018EA
:105950000C0C0C060C03F00100000000000000001D
:105960000000000000000000000000000000000037
:105970000000000000000000000000008001C003E3
:10598000C0038001000000000000000000000000D3
:105990008001C003C003800100000000000000007F
:1059A00000000000000000000000000000000000F7
:1059B000000000000000000000000000C000C00067
:1059C00000000000000000000000000000000000D7
:1059D00000000000C000C0008000800040004000C7
:1059E0000000000000000000000000000020001087
:1059F00000080004000600038001C00060003000C1
:105A000018000C00180030006000C0008001000386
:105A10000006000400080010002000000000000044
:105A20000000000000000000000000000000000076
:105A3000000000000000000000000000FE7F0000E9
:105A40000000000000000000FE7F000000000000D9
:105A50000000000000000000000000000000000046
:105A6000000000000000000000000000040008002A
:105A7000100020006000C000800100030006000C40
:105A8000001800300018000C000600038001C00060
:105A9000600020001000080004000000000000006A
:105AA000000000000000000000000000C0073018E7
:105AB000083008600C601C601C601C600030001C1A
:105AC00000060001800080008000800000000000CF
:105AD0008001C003C003800100000000000000003E
